{
  "contractName": "Buy_eth",
  "abi": [
    {
      "inputs": [
        {
          "name": "_price",
          "type": "uint256"
        },
        {
          "name": "_buyer",
          "type": "address"
        },
        {
          "name": "_orders",
          "type": "address"
        }
      ],
      "payable": true,
      "stateMutability": "payable",
      "type": "constructor"
    },
    {
      "anonymous": false,
      "inputs": [
        {
          "indexed": false,
          "name": "wei_to_buy",
          "type": "uint256"
        }
      ],
      "name": "LogNewWeiToBuy",
      "type": "event"
    },
    {
      "anonymous": false,
      "inputs": [
        {
          "indexed": false,
          "name": "nprice",
          "type": "uint256"
        }
      ],
      "name": "LogNewPrice",
      "type": "event"
    },
    {
      "anonymous": false,
      "inputs": [
        {
          "indexed": true,
          "name": "_buyer",
          "type": "address"
        },
        {
          "indexed": true,
          "name": "_seller",
          "type": "address"
        },
        {
          "indexed": false,
          "name": "value",
          "type": "uint256"
        },
        {
          "indexed": false,
          "name": "_price",
          "type": "uint256"
        }
      ],
      "name": "LogSalePending",
      "type": "event"
    },
    {
      "anonymous": false,
      "inputs": [
        {
          "indexed": true,
          "name": "_seller",
          "type": "address"
        },
        {
          "indexed": true,
          "name": "_buyer",
          "type": "address"
        }
      ],
      "name": "LogCashReceived",
      "type": "event"
    },
    {
      "constant": false,
      "inputs": [],
      "name": "sell",
      "outputs": [],
      "payable": true,
      "stateMutability": "payable",
      "type": "function"
    },
    {
      "constant": false,
      "inputs": [],
      "name": "confirmReceived",
      "outputs": [],
      "payable": true,
      "stateMutability": "payable",
      "type": "function"
    },
    {
      "constant": false,
      "inputs": [
        {
          "name": "vol",
          "type": "uint256"
        }
      ],
      "name": "retreive_eth",
      "outputs": [],
      "payable": true,
      "stateMutability": "payable",
      "type": "function"
    },
    {
      "constant": false,
      "inputs": [
        {
          "name": "new_price",
          "type": "uint256"
        }
      ],
      "name": "changePrice",
      "outputs": [],
      "payable": false,
      "stateMutability": "nonpayable",
      "type": "function"
    },
    {
      "constant": false,
      "inputs": [],
      "name": "terminate_contract",
      "outputs": [],
      "payable": true,
      "stateMutability": "payable",
      "type": "function"
    },
    {
      "constant": true,
      "inputs": [],
      "name": "get_vars",
      "outputs": [
        {
          "name": "",
          "type": "uint256"
        },
        {
          "name": "",
          "type": "uint256"
        }
      ],
      "payable": false,
      "stateMutability": "view",
      "type": "function"
    },
    {
      "constant": true,
      "inputs": [],
      "name": "is_party",
      "outputs": [
        {
          "name": "",
          "type": "string"
        }
      ],
      "payable": false,
      "stateMutability": "view",
      "type": "function"
    },
    {
      "constant": true,
      "inputs": [],
      "name": "has_pending",
      "outputs": [
        {
          "name": "",
          "type": "bool"
        }
      ],
      "payable": false,
      "stateMutability": "view",
      "type": "function"
    }
  ],
  "bytecode": "0x6080604052604051606080610bb8833981018060405281019080805190602001909291908051906020019092919080519060200190929190505050806000806101000a81548173ffffffffffffffffffffffffffffffffffffffff021916908373ffffffffffffffffffffffffffffffffffffffff16021790555081600360006101000a81548173ffffffffffffffffffffffffffffffffffffffff021916908373ffffffffffffffffffffffffffffffffffffffff160217905550826002819055506000600560006101000a81548160ff021916908360ff16021790555034600181905550505050610ac1806100f76000396000f30060806040526004361061008e576000357c0100000000000000000000000000000000000000000000000000000000900463ffffffff168063227b326d1461009357806345710074146100c557806371b8fb01146100cf57806373fac6f0146100d957806381015b9c146100e3578063a2b40d1914610112578063c3ca06121461013f578063d8e33d60146101cf575b600080fd5b34801561009f57600080fd5b506100a86101ef565b604051808381526020018281526020019250505060405180910390f35b6100cd610200565b005b6100d76103fc565b005b6100e1610551565b005b3480156100ef57600080fd5b506100f8610785565b604051808215151515815260200191505060405180910390f35b34801561011e57600080fd5b5061013d600480360381019080803590602001909291905050506107ae565b005b34801561014b57600080fd5b5061015461084d565b6040518080602001828103825283818151815260200191508051906020019080838360005b83811015610194578082015181840152602081019050610179565b50505050905090810190601f1680156101c15780820380516001836020036101000a031916815260200191505b509250505060405180910390f35b6101ed6004803603810190808035906020019092919050505061096b565b005b600080600154600254915091509091565b600080600460003373ffffffffffffffffffffffffffffffffffffffff1673ffffffffffffffffffffffffffffffffffffffff1681526020019081526020016000205414151561024f57600080fd5b60003411801561026d575060015460023481151561026957fe5b0411155b8015610293575060006127106002543481151561028657fe5b0481151561029057fe5b06145b151561029e57600080fd5b6002348115156102aa57fe5b04905080600460003373ffffffffffffffffffffffffffffffffffffffff1673ffffffffffffffffffffffffffffffffffffffff16815260200190815260200160002081905550806001600082825403925050819055506001600560008282829054906101000a900460ff160192506101000a81548160ff021916908360ff1602179055503373ffffffffffffffffffffffffffffffffffffffff16600360009054906101000a900473ffffffffffffffffffffffffffffffffffffffff1673ffffffffffffffffffffffffffffffffffffffff167f4ad213fb6e3032a9d41d4bd82a9d895ecb023cd1968dca7e6894e7662fe3446783600254604051808381526020018281526020019250505060405180910390a37f64dc90db4042609ed72aa03bf5c32686fe07c08c0682284e7f1c6f315a3660b36001546040518082815260200191505060405180910390a150565b600360009054906101000a900473ffffffffffffffffffffffffffffffffffffffff1673ffffffffffffffffffffffffffffffffffffffff163373ffffffffffffffffffffffffffffffffffffffff1614151561045857600080fd5b6000600560009054906101000a900460ff1660ff1614151561047957600080fd5b6000809054906101000a900473ffffffffffffffffffffffffffffffffffffffff1673ffffffffffffffffffffffffffffffffffffffff16636559e1f86040518163ffffffff167c0100000000000000000000000000000000000000000000000000000000028152600401600060405180830381600087803b1580156104fe57600080fd5b505af1158015610512573d6000803e3d6000fd5b50505050600360009054906101000a900473ffffffffffffffffffffffffffffffffffffffff1673ffffffffffffffffffffffffffffffffffffffff16ff5b600080600460003373ffffffffffffffffffffffffffffffffffffffff1673ffffffffffffffffffffffffffffffffffffffff168152602001908152602001600020541180156105b357506000600560009054906101000a900460ff1660ff16115b15156105be57600080fd5b600460003373ffffffffffffffffffffffffffffffffffffffff1673ffffffffffffffffffffffffffffffffffffffff1681526020019081526020016000205490506000600460003373ffffffffffffffffffffffffffffffffffffffff1673ffffffffffffffffffffffffffffffffffffffff168152602001908152602001600020819055503373ffffffffffffffffffffffffffffffffffffffff166108fc829081150290604051600060405180830381858888f1935050505015801561068b573d6000803e3d6000fd5b50600360009054906101000a900473ffffffffffffffffffffffffffffffffffffffff1673ffffffffffffffffffffffffffffffffffffffff163373ffffffffffffffffffffffffffffffffffffffff167f7dadf77d3d0c0cdabccf9f483dd0a60a801a51f7ba524baf3b03289e4e78b2b760405160405180910390a3806002026001600082825401925050819055506001600560008282829054906101000a900460ff160392506101000a81548160ff021916908360ff1602179055507f64dc90db4042609ed72aa03bf5c32686fe07c08c0682284e7f1c6f315a3660b36001546040518082815260200191505060405180910390a150565b600080600560009054906101000a900460ff1660ff1611156107aa57600190506107ab565b5b90565b600360009054906101000a900473ffffffffffffffffffffffffffffffffffffffff1673ffffffffffffffffffffffffffffffffffffffff163373ffffffffffffffffffffffffffffffffffffffff1614151561080a57600080fd5b806002819055507f8b3781c36bbc6b82b5fd7bc438ad241cec4db2920a51ecfeaca9dd406d176a5f6002546040518082815260200191505060405180910390a150565b60603373ffffffffffffffffffffffffffffffffffffffff16600360009054906101000a900473ffffffffffffffffffffffffffffffffffffffff1673ffffffffffffffffffffffffffffffffffffffff1614156108e2576040805190810160405280600581526020017f62757965720000000000000000000000000000000000000000000000000000008152509050610968565b6000600460003373ffffffffffffffffffffffffffffffffffffffff1673ffffffffffffffffffffffffffffffffffffffff168152602001908152602001600020541115610967576040805190810160405280600681526020017f73656c6c657200000000000000000000000000000000000000000000000000008152509050610968565b5b90565b600360009054906101000a900473ffffffffffffffffffffffffffffffffffffffff1673ffffffffffffffffffffffffffffffffffffffff163373ffffffffffffffffffffffffffffffffffffffff161415156109c757600080fd5b611388600254026001540381111515156109e057600080fd5b80600160008282540392505081905550600360009054906101000a900473ffffffffffffffffffffffffffffffffffffffff1673ffffffffffffffffffffffffffffffffffffffff166108fc829081150290604051600060405180830381858888f19350505050158015610a58573d6000803e3d6000fd5b507f64dc90db4042609ed72aa03bf5c32686fe07c08c0682284e7f1c6f315a3660b36001546040518082815260200191505060405180910390a1505600a165627a7a7230582027b2d8ed328824c4d0980ea255145b57f05ab0632fa57832e292e6102a30be510029",
  "source": "pragma solidity ^0.4.21;\n\nimport \"./Orders.sol\";\n\ncontract Buy_eth {\n    Orders orders;\n    uint weiToBuy;\n    uint price; //wei per smallest currency unit (eg. cent)   \n    address buyer;\n    mapping(address => uint) sales;\n    uint8 pending;\n    modifier onlyBuyer() {require(msg.sender == buyer);  _;}\n    \n    event LogNewWeiToBuy(uint wei_to_buy);\n    event LogNewPrice(uint nprice);\n    event LogSalePending(address indexed _buyer, address indexed _seller, uint value, uint _price);\n    event LogCashReceived(address indexed _seller, address indexed _buyer);\n\n    constructor(uint _price, address _buyer, address _orders) public payable {\n        orders = Orders(_orders);\n        buyer = _buyer;\n        price = _price;\n        pending = 0;\n        weiToBuy = msg.value;\n    }\n    function sell() public payable {\n        require(sales[msg.sender] == 0);\n        require(msg.value > 0 && msg.value/2 <= weiToBuy && (msg.value/price)%10000 == 0); \n        uint amt = msg.value/2;\n        sales[msg.sender] = amt;\n        weiToBuy -= amt;\n        pending += 1;\n        emit LogSalePending(buyer, msg.sender, amt, price);\n        emit LogNewWeiToBuy(weiToBuy);\n    }\n\n    function confirmReceived() public payable {\n        require(sales[msg.sender] > 0 && pending > 0);\n        uint amt = sales[msg.sender];\n        sales[msg.sender] = 0;\n        msg.sender.transfer(amt);\n        emit LogCashReceived(msg.sender, buyer);\n        weiToBuy += 2*amt;\n        pending -= 1;\n        emit LogNewWeiToBuy(weiToBuy);\n    }\n    \n    function retreive_eth(uint vol) public onlyBuyer payable {  \n        require(vol <= weiToBuy-price*5000);\n        weiToBuy -= vol;\n        buyer.transfer(vol);\n        emit LogNewWeiToBuy(weiToBuy);\n    }\n\n    function changePrice(uint new_price) public onlyBuyer {\n        price = new_price;\n        emit LogNewPrice(price);\n    }\n\n    function terminate_contract() public onlyBuyer payable {\n        require(pending == 0);\n        orders.removeBuyOrder();\n        selfdestruct(buyer);\n    }\n\n    function get_vars() view public returns(uint,uint) {\n        return (weiToBuy, price);\n    }\n\n    function is_party() view public returns(string) {\n        if (buyer == msg.sender) return \"buyer\";\n        else if (sales[msg.sender] > 0) return \"seller\";\n    }\n\n    function has_pending() view public returns(bool) {\n\tif (pending > 0) return true;\n    }\n}\n\n",
  "sourcePath": "/home/kees/ethereum/eth_market_dapp/contracts/Buy_eth.sol",
  "compiler": {
    "name": "solc",
    "version": "0.4.24+commit.e67f0147.Emscripten.clang"
  },
  "schemaVersion": "3.0.2",
  "updatedAt": "2019-03-08T04:55:16.716Z"
}