{
  "contractName": "Buy_eth",
  "abi": [
    {
      "inputs": [
        {
          "name": "_currency",
          "type": "string"
        },
        {
          "name": "_price",
          "type": "uint256"
        },
        {
          "name": "_buyer",
          "type": "address"
        },
        {
          "name": "_orders",
          "type": "address"
        }
      ],
      "payable": true,
      "stateMutability": "payable",
      "type": "constructor"
    },
    {
      "anonymous": false,
      "inputs": [
        {
          "indexed": false,
          "name": "wei_to_buy",
          "type": "uint256"
        }
      ],
      "name": "LogNewWeiToBuy",
      "type": "event"
    },
    {
      "anonymous": false,
      "inputs": [
        {
          "indexed": false,
          "name": "nprice",
          "type": "uint256"
        }
      ],
      "name": "LogNewPrice",
      "type": "event"
    },
    {
      "anonymous": false,
      "inputs": [
        {
          "indexed": true,
          "name": "_buyer",
          "type": "address"
        },
        {
          "indexed": true,
          "name": "_seller",
          "type": "address"
        },
        {
          "indexed": false,
          "name": "value",
          "type": "uint256"
        },
        {
          "indexed": false,
          "name": "_price",
          "type": "uint256"
        }
      ],
      "name": "LogSalePending",
      "type": "event"
    },
    {
      "anonymous": false,
      "inputs": [
        {
          "indexed": true,
          "name": "_seller",
          "type": "address"
        },
        {
          "indexed": true,
          "name": "_buyer",
          "type": "address"
        }
      ],
      "name": "LogCashReceived",
      "type": "event"
    },
    {
      "constant": false,
      "inputs": [],
      "name": "sell",
      "outputs": [],
      "payable": true,
      "stateMutability": "payable",
      "type": "function"
    },
    {
      "constant": false,
      "inputs": [],
      "name": "confirmReceived",
      "outputs": [],
      "payable": true,
      "stateMutability": "payable",
      "type": "function"
    },
    {
      "constant": false,
      "inputs": [
        {
          "name": "vol",
          "type": "uint256"
        }
      ],
      "name": "retreive_eth",
      "outputs": [],
      "payable": true,
      "stateMutability": "payable",
      "type": "function"
    },
    {
      "constant": false,
      "inputs": [
        {
          "name": "new_price",
          "type": "uint256"
        }
      ],
      "name": "changePrice",
      "outputs": [],
      "payable": false,
      "stateMutability": "nonpayable",
      "type": "function"
    },
    {
      "constant": false,
      "inputs": [],
      "name": "terminate_contract",
      "outputs": [],
      "payable": true,
      "stateMutability": "payable",
      "type": "function"
    },
    {
      "constant": true,
      "inputs": [],
      "name": "get_vars",
      "outputs": [
        {
          "name": "",
          "type": "uint256"
        },
        {
          "name": "",
          "type": "uint256"
        }
      ],
      "payable": false,
      "stateMutability": "view",
      "type": "function"
    },
    {
      "constant": true,
      "inputs": [],
      "name": "is_party",
      "outputs": [
        {
          "name": "",
          "type": "string"
        }
      ],
      "payable": false,
      "stateMutability": "view",
      "type": "function"
    },
    {
      "constant": true,
      "inputs": [],
      "name": "has_pending",
      "outputs": [
        {
          "name": "",
          "type": "bool"
        }
      ],
      "payable": false,
      "stateMutability": "view",
      "type": "function"
    }
  ],
  "bytecode": "0x6060604052604051610cf7380380610cf783398101604052808051820191906020018051906020019091908051906020019091908051906020019091905050806000806101000a81548173ffffffffffffffffffffffffffffffffffffffff021916908373ffffffffffffffffffffffffffffffffffffffff1602179055508360019080519060200190610094929190610109565b5081600460006101000a81548173ffffffffffffffffffffffffffffffffffffffff021916908373ffffffffffffffffffffffffffffffffffffffff160217905550826003819055506000600660006101000a81548160ff021916908360ff16021790555034600281905550505050506101ae565b828054600181600116156101000203166002900490600052602060002090601f016020900481019282601f1061014a57805160ff1916838001178555610178565b82800160010185558215610178579182015b8281111561017757825182559160200191906001019061015c565b5b5090506101859190610189565b5090565b6101ab91905b808211156101a757600081600090555060010161018f565b5090565b90565b610b3a806101bd6000396000f30060606040526004361061008e576000357c0100000000000000000000000000000000000000000000000000000000900463ffffffff168063227b326d1461009357806345710074146100c357806371b8fb01146100cd57806373fac6f0146100d757806381015b9c146100e1578063a2b40d191461010e578063c3ca061214610131578063d8e33d60146101bf575b600080fd5b341561009e57600080fd5b6100a66101d7565b604051808381526020018281526020019250505060405180910390f35b6100cb6101e8565b005b6100d56103e4565b005b6100df6105be565b005b34156100ec57600080fd5b6100f46107eb565b604051808215151515815260200191505060405180910390f35b341561011957600080fd5b61012f6004808035906020019091905050610814565b005b341561013c57600080fd5b6101446108b3565b6040518080602001828103825283818151815260200191508051906020019080838360005b83811015610184578082015181840152602081019050610169565b50505050905090810190601f1680156101b15780820380516001836020036101000a031916815260200191505b509250505060405180910390f35b6101d560048080359060200190919050506109d7565b005b600080600254600354915091509091565b600080600560003373ffffffffffffffffffffffffffffffffffffffff1673ffffffffffffffffffffffffffffffffffffffff1681526020019081526020016000205414151561023757600080fd5b600034118015610255575060025460023481151561025157fe5b0411155b801561027b575060006127106003543481151561026e57fe5b0481151561027857fe5b06145b151561028657600080fd5b60023481151561029257fe5b04905080600560003373ffffffffffffffffffffffffffffffffffffffff1673ffffffffffffffffffffffffffffffffffffffff16815260200190815260200160002081905550806002600082825403925050819055506001600660008282829054906101000a900460ff160192506101000a81548160ff021916908360ff1602179055503373ffffffffffffffffffffffffffffffffffffffff16600460009054906101000a900473ffffffffffffffffffffffffffffffffffffffff1673ffffffffffffffffffffffffffffffffffffffff167f4ad213fb6e3032a9d41d4bd82a9d895ecb023cd1968dca7e6894e7662fe3446783600354604051808381526020018281526020019250505060405180910390a37f64dc90db4042609ed72aa03bf5c32686fe07c08c0682284e7f1c6f315a3660b36002546040518082815260200191505060405180910390a150565b600460009054906101000a900473ffffffffffffffffffffffffffffffffffffffff1673ffffffffffffffffffffffffffffffffffffffff163373ffffffffffffffffffffffffffffffffffffffff1614151561044057600080fd5b6000600660009054906101000a900460ff1660ff1614151561046157600080fd5b6000809054906101000a900473ffffffffffffffffffffffffffffffffffffffff1673ffffffffffffffffffffffffffffffffffffffff1663476b663260016040518263ffffffff167c010000000000000000000000000000000000000000000000000000000002815260040180806020018281038252838181546001816001161561010002031660029004815260200191508054600181600116156101000203166002900480156105545780601f1061052957610100808354040283529160200191610554565b820191906000526020600020905b81548152906001019060200180831161053757829003601f168201915b505092505050600060405180830381600087803b151561057357600080fd5b5af1151561058057600080fd5b505050600460009054906101000a900473ffffffffffffffffffffffffffffffffffffffff1673ffffffffffffffffffffffffffffffffffffffff16ff5b600080600560003373ffffffffffffffffffffffffffffffffffffffff1673ffffffffffffffffffffffffffffffffffffffff1681526020019081526020016000205411801561062057506000600660009054906101000a900460ff1660ff16115b151561062b57600080fd5b600560003373ffffffffffffffffffffffffffffffffffffffff1673ffffffffffffffffffffffffffffffffffffffff1681526020019081526020016000205490506000600560003373ffffffffffffffffffffffffffffffffffffffff1673ffffffffffffffffffffffffffffffffffffffff168152602001908152602001600020819055503373ffffffffffffffffffffffffffffffffffffffff166108fc829081150290604051600060405180830381858888f1935050505015156106f257600080fd5b600460009054906101000a900473ffffffffffffffffffffffffffffffffffffffff1673ffffffffffffffffffffffffffffffffffffffff163373ffffffffffffffffffffffffffffffffffffffff167f7dadf77d3d0c0cdabccf9f483dd0a60a801a51f7ba524baf3b03289e4e78b2b760405160405180910390a3806002026002600082825401925050819055506001600660008282829054906101000a900460ff160392506101000a81548160ff021916908360ff1602179055507f64dc90db4042609ed72aa03bf5c32686fe07c08c0682284e7f1c6f315a3660b36002546040518082815260200191505060405180910390a150565b600080600660009054906101000a900460ff1660ff1611156108105760019050610811565b5b90565b600460009054906101000a900473ffffffffffffffffffffffffffffffffffffffff1673ffffffffffffffffffffffffffffffffffffffff163373ffffffffffffffffffffffffffffffffffffffff1614151561087057600080fd5b806003819055507f8b3781c36bbc6b82b5fd7bc438ad241cec4db2920a51ecfeaca9dd406d176a5f6003546040518082815260200191505060405180910390a150565b6108bb610afa565b3373ffffffffffffffffffffffffffffffffffffffff16600460009054906101000a900473ffffffffffffffffffffffffffffffffffffffff1673ffffffffffffffffffffffffffffffffffffffff16141561094e576040805190810160405280600581526020017f627579657200000000000000000000000000000000000000000000000000000081525090506109d4565b6000600560003373ffffffffffffffffffffffffffffffffffffffff1673ffffffffffffffffffffffffffffffffffffffff1681526020019081526020016000205411156109d3576040805190810160405280600681526020017f73656c6c6572000000000000000000000000000000000000000000000000000081525090506109d4565b5b90565b600460009054906101000a900473ffffffffffffffffffffffffffffffffffffffff1673ffffffffffffffffffffffffffffffffffffffff163373ffffffffffffffffffffffffffffffffffffffff16141515610a3357600080fd5b61138860035402600254038111151515610a4c57600080fd5b80600260008282540392505081905550600460009054906101000a900473ffffffffffffffffffffffffffffffffffffffff1673ffffffffffffffffffffffffffffffffffffffff166108fc829081150290604051600060405180830381858888f193505050501515610abe57600080fd5b7f64dc90db4042609ed72aa03bf5c32686fe07c08c0682284e7f1c6f315a3660b36002546040518082815260200191505060405180910390a150565b6020604051908101604052806000815250905600a165627a7a723058205e26f8c23e7884d531d1a9d17d2d5eb25b2450278394414f0f9ffc16518e74b90029",
  "source": "pragma solidity ^0.4.21;\n\nimport \"./Orders.sol\";\n\ncontract Buy_eth {\n    Orders orders;\n    string currency;\n    uint weiToBuy;\n    uint price; //wei per smallest currency unit (eg. cent)   \n    address buyer;\n    mapping(address => uint) sales;\n    uint8 pending;\n    modifier onlyBuyer() {require(msg.sender == buyer);  _;}\n    \n    event LogNewWeiToBuy(uint wei_to_buy);\n    event LogNewPrice(uint nprice);\n    event LogSalePending(address indexed _buyer, address indexed _seller, uint value, uint _price);\n    event LogCashReceived(address indexed _seller, address indexed _buyer);\n\n    function Buy_eth(string _currency, uint _price, address _buyer, address _orders) public payable {\n        orders = Orders(_orders);\n\tcurrency = _currency;\n        buyer = _buyer;\n        price = _price;\n        pending = 0;\n        weiToBuy = msg.value;\n    }\n    function sell() public payable {\n        require(sales[msg.sender] == 0);\n        require(msg.value > 0 && msg.value/2 <= weiToBuy && (msg.value/price)%10000 == 0); \n        uint amt = msg.value/2;\n        sales[msg.sender] = amt;\n        weiToBuy -= amt;\n        pending += 1;\n        emit LogSalePending(buyer, msg.sender, amt, price);\n        emit LogNewWeiToBuy(weiToBuy);\n    }\n\n    function confirmReceived() public payable {\n        require(sales[msg.sender] > 0 && pending > 0);\n        uint amt = sales[msg.sender];\n        sales[msg.sender] = 0;\n        msg.sender.transfer(amt);\n        emit LogCashReceived(msg.sender, buyer);\n        weiToBuy += 2*amt;\n        pending -= 1;\n        emit LogNewWeiToBuy(weiToBuy);\n    }\n    \n    function retreive_eth(uint vol) public onlyBuyer payable {  \n        require(vol <= weiToBuy-price*5000);\n        weiToBuy -= vol;\n        buyer.transfer(vol);\n        emit LogNewWeiToBuy(weiToBuy);\n    }\n\n    function changePrice(uint new_price) public onlyBuyer {\n        price = new_price;\n        emit LogNewPrice(price);\n    }\n\n    function terminate_contract() public onlyBuyer payable {\n        require(pending == 0);\n        orders.removeBuyOrder(currency);\n        selfdestruct(buyer);\n    }\n\n    function get_vars() view public returns(uint,uint) {\n        return (weiToBuy, price);\n    }\n\n    function is_party() view public returns(string) {\n        if (buyer == msg.sender) return \"buyer\";\n        else if (sales[msg.sender] > 0) return \"seller\";\n    }\n\n    function has_pending() view public returns(bool) {\n\tif (pending > 0) return true;\n    }\n}\n\n",
  "sourcePath": "/home/kees/ethereum/eth_market_dapp/contracts/Buy_eth.sol",
  "compiler": {
    "name": "solc",
    "version": "0.4.21+commit.dfe3193c.Emscripten.clang"
  },
  "schemaVersion": "2.0.0",
  "updatedAt": "2018-03-24T04:58:41.642Z"
}