{
  "contractName": "Orders",
  "abi": [
    {
      "payable": false,
      "stateMutability": "nonpayable",
      "type": "fallback"
    },
    {
      "anonymous": false,
      "inputs": [
        {
          "indexed": true,
          "name": "currency",
          "type": "bytes3"
        },
        {
          "indexed": false,
          "name": "sellorder",
          "type": "address"
        }
      ],
      "name": "LogNewSellOrder",
      "type": "event",
      "signature": "0xda78f1edc5312d439843fba7b2a994481b99e180d78d8d642718d1eb23227c7e"
    },
    {
      "anonymous": false,
      "inputs": [
        {
          "indexed": true,
          "name": "currency",
          "type": "bytes3"
        },
        {
          "indexed": false,
          "name": "buyorder",
          "type": "address"
        }
      ],
      "name": "LogNewBuyOrder",
      "type": "event",
      "signature": "0x62c676695c317ad1e7e7d0876f1946cdfb0e64416011ac7fde25e88f0ff04a01"
    },
    {
      "anonymous": false,
      "inputs": [
        {
          "indexed": true,
          "name": "sellorder",
          "type": "address"
        }
      ],
      "name": "LogRemoveSellOrder",
      "type": "event",
      "signature": "0xc56eb701a0b6caa330d801c91f60991392c7264def3ad738aca307c1d39f48c2"
    },
    {
      "anonymous": false,
      "inputs": [
        {
          "indexed": true,
          "name": "buyorder",
          "type": "address"
        }
      ],
      "name": "LogRemoveBuyOrder",
      "type": "event",
      "signature": "0x87e4662a095900af7c2c85144e6ac627f7efd1e3b1ece41db2ed6c4904f4c1e7"
    },
    {
      "constant": false,
      "inputs": [
        {
          "name": "curr",
          "type": "bytes3"
        },
        {
          "name": "price",
          "type": "uint256"
        }
      ],
      "name": "newSellOrder",
      "outputs": [],
      "payable": true,
      "stateMutability": "payable",
      "type": "function",
      "signature": "0x98c4a0f0"
    },
    {
      "constant": false,
      "inputs": [
        {
          "name": "curr",
          "type": "bytes3"
        },
        {
          "name": "price",
          "type": "uint256"
        }
      ],
      "name": "newBuyOrder",
      "outputs": [],
      "payable": true,
      "stateMutability": "payable",
      "type": "function",
      "signature": "0x5834691d"
    },
    {
      "constant": false,
      "inputs": [],
      "name": "removeSellOrder",
      "outputs": [],
      "payable": false,
      "stateMutability": "nonpayable",
      "type": "function",
      "signature": "0x90711c6c"
    },
    {
      "constant": false,
      "inputs": [],
      "name": "removeBuyOrder",
      "outputs": [],
      "payable": false,
      "stateMutability": "nonpayable",
      "type": "function",
      "signature": "0x6559e1f8"
    }
  ],
  "bytecode": "0x608060405234801561001057600080fd5b50611c79806100206000396000f3fe608060405260043610610062576000357c0100000000000000000000000000000000000000000000000000000000900463ffffffff1680635834691d146100745780636559e1f8146100cc57806390711c6c146100e357806398c4a0f0146100fa575b34801561006e57600080fd5b50600080fd5b6100ca6004803603604081101561008a57600080fd5b8101908080357cffffffffffffffffffffffffffffffffffffffffffffffffffffffffff1916906020019092919080359060200190929190505050610152565b005b3480156100d857600080fd5b506100e1610295565b005b3480156100ef57600080fd5b506100f86102da565b005b6101506004803603604081101561011057600080fd5b8101908080357cffffffffffffffffffffffffffffffffffffffffffffffffffffffffff191690602001909291908035906020019092919050505061031f565b005b611388813481151561016057fe5b041015151561016e57600080fd5b60003482333061017c610462565b808481526020018373ffffffffffffffffffffffffffffffffffffffff1673ffffffffffffffffffffffffffffffffffffffff1681526020018273ffffffffffffffffffffffffffffffffffffffff1673ffffffffffffffffffffffffffffffffffffffff16815260200193505050506040518091039082f080158015610207573d6000803e3d6000fd5b5090509050827cffffffffffffffffffffffffffffffffffffffffffffffffffffffffff19167f62c676695c317ad1e7e7d0876f1946cdfb0e64416011ac7fde25e88f0ff04a0182604051808273ffffffffffffffffffffffffffffffffffffffff1673ffffffffffffffffffffffffffffffffffffffff16815260200191505060405180910390a2505050565b3373ffffffffffffffffffffffffffffffffffffffff167f87e4662a095900af7c2c85144e6ac627f7efd1e3b1ece41db2ed6c4904f4c1e760405160405180910390a2565b3373ffffffffffffffffffffffffffffffffffffffff167fc56eb701a0b6caa330d801c91f60991392c7264def3ad738aca307c1d39f48c260405160405180910390a2565b612710813481151561032d57fe5b041015151561033b57600080fd5b600034823330610349610472565b808481526020018373ffffffffffffffffffffffffffffffffffffffff1673ffffffffffffffffffffffffffffffffffffffff1681526020018273ffffffffffffffffffffffffffffffffffffffff1673ffffffffffffffffffffffffffffffffffffffff16815260200193505050506040518091039082f0801580156103d4573d6000803e3d6000fd5b5090509050827cffffffffffffffffffffffffffffffffffffffffffffffffffffffffff19167fda78f1edc5312d439843fba7b2a994481b99e180d78d8d642718d1eb23227c7e82604051808273ffffffffffffffffffffffffffffffffffffffff1673ffffffffffffffffffffffffffffffffffffffff16815260200191505060405180910390a2505050565b604051610be48061048383390190565b604051610be7806110678339019056fe6080604052604051606080610be48339810180604052606081101561002357600080fd5b81019080805190602001909291908051906020019092919080519060200190929190505050806000806101000a81548173ffffffffffffffffffffffffffffffffffffffff021916908373ffffffffffffffffffffffffffffffffffffffff16021790555081600360006101000a81548173ffffffffffffffffffffffffffffffffffffffff021916908373ffffffffffffffffffffffffffffffffffffffff160217905550826002819055506000600560006101000a81548160ff021916908360ff16021790555034600181905550505050610adf806101056000396000f3fe60806040526004361061008e576000357c0100000000000000000000000000000000000000000000000000000000900463ffffffff168063227b326d1461009357806345710074146100c557806371b8fb01146100cf57806373fac6f0146100d957806381015b9c146100e3578063a2b40d1914610112578063c3ca06121461014d578063d8e33d60146101dd575b600080fd5b34801561009f57600080fd5b506100a861020b565b604051808381526020018281526020019250505060405180910390f35b6100cd61021c565b005b6100d7610419565b005b6100e161056e565b005b3480156100ef57600080fd5b506100f86107a3565b604051808215151515815260200191505060405180910390f35b34801561011e57600080fd5b5061014b6004803603602081101561013557600080fd5b81019080803590602001909291905050506107cc565b005b34801561015957600080fd5b5061016261086b565b6040518080602001828103825283818151815260200191508051906020019080838360005b838110156101a2578082015181840152602081019050610187565b50505050905090810190601f1680156101cf5780820380516001836020036101000a031916815260200191505b509250505060405180910390f35b610209600480360360208110156101f357600080fd5b8101908080359060200190929190505050610989565b005b600080600154600254915091509091565b6000600460003373ffffffffffffffffffffffffffffffffffffffff1673ffffffffffffffffffffffffffffffffffffffff1681526020019081526020016000205414151561026a57600080fd5b600034118015610288575060015460023481151561028457fe5b0411155b80156102ae57506000612710600254348115156102a157fe5b048115156102ab57fe5b06145b15156102b957600080fd5b60006002348115156102c757fe5b04905080600460003373ffffffffffffffffffffffffffffffffffffffff1673ffffffffffffffffffffffffffffffffffffffff16815260200190815260200160002081905550806001600082825403925050819055506001600560008282829054906101000a900460ff160192506101000a81548160ff021916908360ff1602179055503373ffffffffffffffffffffffffffffffffffffffff16600360009054906101000a900473ffffffffffffffffffffffffffffffffffffffff1673ffffffffffffffffffffffffffffffffffffffff167f4ad213fb6e3032a9d41d4bd82a9d895ecb023cd1968dca7e6894e7662fe3446783600254604051808381526020018281526020019250505060405180910390a37f64dc90db4042609ed72aa03bf5c32686fe07c08c0682284e7f1c6f315a3660b36001546040518082815260200191505060405180910390a150565b600360009054906101000a900473ffffffffffffffffffffffffffffffffffffffff1673ffffffffffffffffffffffffffffffffffffffff163373ffffffffffffffffffffffffffffffffffffffff1614151561047557600080fd5b6000600560009054906101000a900460ff1660ff1614151561049657600080fd5b6000809054906101000a900473ffffffffffffffffffffffffffffffffffffffff1673ffffffffffffffffffffffffffffffffffffffff16636559e1f86040518163ffffffff167c0100000000000000000000000000000000000000000000000000000000028152600401600060405180830381600087803b15801561051b57600080fd5b505af115801561052f573d6000803e3d6000fd5b50505050600360009054906101000a900473ffffffffffffffffffffffffffffffffffffffff1673ffffffffffffffffffffffffffffffffffffffff16ff5b6000600460003373ffffffffffffffffffffffffffffffffffffffff1673ffffffffffffffffffffffffffffffffffffffff168152602001908152602001600020541180156105cf57506000600560009054906101000a900460ff1660ff16115b15156105da57600080fd5b6000600460003373ffffffffffffffffffffffffffffffffffffffff1673ffffffffffffffffffffffffffffffffffffffff1681526020019081526020016000205490506000600460003373ffffffffffffffffffffffffffffffffffffffff1673ffffffffffffffffffffffffffffffffffffffff168152602001908152602001600020819055503373ffffffffffffffffffffffffffffffffffffffff166108fc829081150290604051600060405180830381858888f193505050501580156106a9573d6000803e3d6000fd5b50600360009054906101000a900473ffffffffffffffffffffffffffffffffffffffff1673ffffffffffffffffffffffffffffffffffffffff163373ffffffffffffffffffffffffffffffffffffffff167f7dadf77d3d0c0cdabccf9f483dd0a60a801a51f7ba524baf3b03289e4e78b2b760405160405180910390a3806002026001600082825401925050819055506001600560008282829054906101000a900460ff160392506101000a81548160ff021916908360ff1602179055507f64dc90db4042609ed72aa03bf5c32686fe07c08c0682284e7f1c6f315a3660b36001546040518082815260200191505060405180910390a150565b600080600560009054906101000a900460ff1660ff1611156107c857600190506107c9565b5b90565b600360009054906101000a900473ffffffffffffffffffffffffffffffffffffffff1673ffffffffffffffffffffffffffffffffffffffff163373ffffffffffffffffffffffffffffffffffffffff1614151561082857600080fd5b806002819055507f8b3781c36bbc6b82b5fd7bc438ad241cec4db2920a51ecfeaca9dd406d176a5f6002546040518082815260200191505060405180910390a150565b60603373ffffffffffffffffffffffffffffffffffffffff16600360009054906101000a900473ffffffffffffffffffffffffffffffffffffffff1673ffffffffffffffffffffffffffffffffffffffff161415610900576040805190810160405280600581526020017f62757965720000000000000000000000000000000000000000000000000000008152509050610986565b6000600460003373ffffffffffffffffffffffffffffffffffffffff1673ffffffffffffffffffffffffffffffffffffffff168152602001908152602001600020541115610985576040805190810160405280600681526020017f73656c6c657200000000000000000000000000000000000000000000000000008152509050610986565b5b90565b600360009054906101000a900473ffffffffffffffffffffffffffffffffffffffff1673ffffffffffffffffffffffffffffffffffffffff163373ffffffffffffffffffffffffffffffffffffffff161415156109e557600080fd5b611388600254026001540381111515156109fe57600080fd5b80600160008282540392505081905550600360009054906101000a900473ffffffffffffffffffffffffffffffffffffffff1673ffffffffffffffffffffffffffffffffffffffff166108fc829081150290604051600060405180830381858888f19350505050158015610a76573d6000803e3d6000fd5b507f64dc90db4042609ed72aa03bf5c32686fe07c08c0682284e7f1c6f315a3660b36001546040518082815260200191505060405180910390a15056fea165627a7a723058207a66fbbfb81c5dbb2484f0974dca24a1eb0454e55f10c41d0f044cf1cbe55ff300296080604052604051606080610be78339810180604052606081101561002357600080fd5b81019080805190602001909291908051906020019092919080519060200190929190505050806000806101000a81548173ffffffffffffffffffffffffffffffffffffffff021916908373ffffffffffffffffffffffffffffffffffffffff16021790555081600360006101000a81548173ffffffffffffffffffffffffffffffffffffffff021916908373ffffffffffffffffffffffffffffffffffffffff160217905550826002819055506000600560006101000a81548160ff021916908360ff1602179055506002348115156100f857fe5b04600181905550505050610ad6806101116000396000f3fe60806040526004361061008e576000357c0100000000000000000000000000000000000000000000000000000000900463ffffffff168063227b326d1461009357806380889348146100c557806381015b9c146101165780638894dd2b14610145578063a2b40d191461014f578063a6f2ae3a1461018a578063c3ca061214610194578063f31fbe8814610224575b600080fd5b34801561009f57600080fd5b506100a861022e565b604051808381526020018281526020019250505060405180910390f35b3480156100d157600080fd5b50610114600480360360208110156100e857600080fd5b81019080803573ffffffffffffffffffffffffffffffffffffffff16906020019092919050505061023f565b005b34801561012257600080fd5b5061012b6104dd565b604051808215151515815260200191505060405180910390f35b61014d610506565b005b34801561015b57600080fd5b506101886004803603602081101561017257600080fd5b81019080803590602001909291905050506105b9565b005b610192610658565b005b3480156101a057600080fd5b506101a9610837565b6040518080602001828103825283818151815260200191508051906020019080838360005b838110156101e95780820151818401526020810190506101ce565b50505050905090810190601f1680156102165780820380516001836020036101000a031916815260200191505b509250505060405180910390f35b61022c610955565b005b600080600154600254915091509091565b600360009054906101000a900473ffffffffffffffffffffffffffffffffffffffff1673ffffffffffffffffffffffffffffffffffffffff163373ffffffffffffffffffffffffffffffffffffffff1614151561029b57600080fd5b6000600460008373ffffffffffffffffffffffffffffffffffffffff1673ffffffffffffffffffffffffffffffffffffffff168152602001908152602001600020541180156102fc57506000600560009054906101000a900460ff1660ff16115b151561030757600080fd5b6000600460008373ffffffffffffffffffffffffffffffffffffffff1673ffffffffffffffffffffffffffffffffffffffff1681526020019081526020016000205490506000600460008473ffffffffffffffffffffffffffffffffffffffff1673ffffffffffffffffffffffffffffffffffffffff168152602001908152602001600020819055508173ffffffffffffffffffffffffffffffffffffffff166108fc826002029081150290604051600060405180830381858888f193505050501580156103d9573d6000803e3d6000fd5b506001600560008282829054906101000a900460ff160392506101000a81548160ff021916908360ff160217905550600360009054906101000a900473ffffffffffffffffffffffffffffffffffffffff1673ffffffffffffffffffffffffffffffffffffffff168273ffffffffffffffffffffffffffffffffffffffff167f7dadf77d3d0c0cdabccf9f483dd0a60a801a51f7ba524baf3b03289e4e78b2b760405160405180910390a360028181151561049057fe5b046001600082825401925050819055507f257be50b9a2f1e58c2906332b22697648737ecebf8d52979ad6b3f0d3e5fa4d96001546040518082815260200191505060405180910390a15050565b600080600560009054906101000a900460ff1660ff1611156105025760019050610503565b5b90565b600360009054906101000a900473ffffffffffffffffffffffffffffffffffffffff1673ffffffffffffffffffffffffffffffffffffffff163373ffffffffffffffffffffffffffffffffffffffff1614151561056257600080fd5b60023481151561056e57fe5b046001600082825401925050819055507f257be50b9a2f1e58c2906332b22697648737ecebf8d52979ad6b3f0d3e5fa4d96001546040518082815260200191505060405180910390a1565b600360009054906101000a900473ffffffffffffffffffffffffffffffffffffffff1673ffffffffffffffffffffffffffffffffffffffff163373ffffffffffffffffffffffffffffffffffffffff1614151561061557600080fd5b806002819055507f8b3781c36bbc6b82b5fd7bc438ad241cec4db2920a51ecfeaca9dd406d176a5f6002546040518082815260200191505060405180910390a150565b6000600460003373ffffffffffffffffffffffffffffffffffffffff1673ffffffffffffffffffffffffffffffffffffffff168152602001908152602001600020541415156106a657600080fd5b6000341180156106b857506001543411155b80156106de57506000611388600254348115156106d157fe5b048115156106db57fe5b06145b15156106e957600080fd5b34600460003373ffffffffffffffffffffffffffffffffffffffff1673ffffffffffffffffffffffffffffffffffffffff16815260200190815260200160002081905550346001600082825403925050819055506001600560008282829054906101000a900460ff160192506101000a81548160ff021916908360ff1602179055507f257be50b9a2f1e58c2906332b22697648737ecebf8d52979ad6b3f0d3e5fa4d96001546040518082815260200191505060405180910390a13373ffffffffffffffffffffffffffffffffffffffff16600360009054906101000a900473ffffffffffffffffffffffffffffffffffffffff1673ffffffffffffffffffffffffffffffffffffffff167f4ad213fb6e3032a9d41d4bd82a9d895ecb023cd1968dca7e6894e7662fe3446734600254604051808381526020018281526020019250505060405180910390a3565b60606000600460003373ffffffffffffffffffffffffffffffffffffffff1673ffffffffffffffffffffffffffffffffffffffff1681526020019081526020016000205411156108be576040805190810160405280600581526020017f62757965720000000000000000000000000000000000000000000000000000008152509050610952565b3373ffffffffffffffffffffffffffffffffffffffff16600360009054906101000a900473ffffffffffffffffffffffffffffffffffffffff1673ffffffffffffffffffffffffffffffffffffffff161415610951576040805190810160405280600681526020017f73656c6c657200000000000000000000000000000000000000000000000000008152509050610952565b5b90565b600360009054906101000a900473ffffffffffffffffffffffffffffffffffffffff1673ffffffffffffffffffffffffffffffffffffffff163373ffffffffffffffffffffffffffffffffffffffff161415156109b157600080fd5b6000600560009054906101000a900460ff1660ff161415156109d257600080fd5b6000809054906101000a900473ffffffffffffffffffffffffffffffffffffffff1673ffffffffffffffffffffffffffffffffffffffff166390711c6c6040518163ffffffff167c0100000000000000000000000000000000000000000000000000000000028152600401600060405180830381600087803b158015610a5757600080fd5b505af1158015610a6b573d6000803e3d6000fd5b50505050600360009054906101000a900473ffffffffffffffffffffffffffffffffffffffff1673ffffffffffffffffffffffffffffffffffffffff16fffea165627a7a72305820d47148b8ef59d31b6a78f4d0346807d9bf934ef736767b65093d091116de3ce30029a165627a7a72305820251c76f727b3c2a8c359183d0e88ffc8bf9ef904236a1065c4330400605051030029",
  "source": "pragma solidity >=0.4.22 <0.6.0;\n\nimport \"./Sell_eth.sol\";\nimport \"./Buy_eth.sol\";\n\ncontract Orders {\n\n  event LogNewSellOrder(bytes3 indexed currency, address sellorder);\n  event LogNewBuyOrder(bytes3 indexed currency, address buyorder);\n  event LogRemoveSellOrder(address indexed sellorder);\n  event LogRemoveBuyOrder(address indexed buyorder);   \n  function newSellOrder(bytes3 curr, uint price) public payable {\n    require(msg.value/price >= 10000);\n    Sell_eth newselleth = (new Sell_eth).value(msg.value)(price, msg.sender, address(this));\n    emit LogNewSellOrder(curr, address(newselleth));    \n  }\n\n  function newBuyOrder(bytes3 curr, uint price) public payable {\n    require(msg.value/price >= 5000);\n    Buy_eth newbuyeth =(new Buy_eth).value(msg.value)(price, msg.sender, address(this));\n    emit LogNewBuyOrder(curr, address(newbuyeth));\n  }\n\n  function removeSellOrder() public {  \n    emit LogRemoveSellOrder(msg.sender);\n  }\n\n  function removeBuyOrder() public {\n    emit LogRemoveBuyOrder(msg.sender);\n  }\n\n  function() external {revert();}\n}\n\n",
  "sourcePath": "/home/kees/ethereum/eth_market_dapp/contracts/Orders.sol",
  "compiler": {
    "name": "solc",
    "version": "0.5.0+commit.1d4f565a.Emscripten.clang"
  },
  "schemaVersion": "3.0.2",
  "updatedAt": "2019-03-14T07:10:20.122Z",
  "devdoc": {
    "methods": {}
  },
  "userdoc": {
    "methods": {}
  }
}