{
  "contractName": "Orders",
  "abi": [
    {
      "payable": false,
      "stateMutability": "nonpayable",
      "type": "fallback"
    },
    {
      "anonymous": false,
      "inputs": [
        {
          "indexed": true,
          "name": "currency",
          "type": "bytes3"
        },
        {
          "indexed": false,
          "name": "sellorder",
          "type": "address"
        }
      ],
      "name": "LogNewSellOrder",
      "type": "event",
      "signature": "0xda78f1edc5312d439843fba7b2a994481b99e180d78d8d642718d1eb23227c7e"
    },
    {
      "anonymous": false,
      "inputs": [
        {
          "indexed": true,
          "name": "currency",
          "type": "bytes3"
        },
        {
          "indexed": false,
          "name": "buyorder",
          "type": "address"
        }
      ],
      "name": "LogNewBuyOrder",
      "type": "event",
      "signature": "0x62c676695c317ad1e7e7d0876f1946cdfb0e64416011ac7fde25e88f0ff04a01"
    },
    {
      "anonymous": false,
      "inputs": [
        {
          "indexed": true,
          "name": "sellorder",
          "type": "address"
        }
      ],
      "name": "LogRemoveSellOrder",
      "type": "event",
      "signature": "0xc56eb701a0b6caa330d801c91f60991392c7264def3ad738aca307c1d39f48c2"
    },
    {
      "anonymous": false,
      "inputs": [
        {
          "indexed": true,
          "name": "buyorder",
          "type": "address"
        }
      ],
      "name": "LogRemoveBuyOrder",
      "type": "event",
      "signature": "0x87e4662a095900af7c2c85144e6ac627f7efd1e3b1ece41db2ed6c4904f4c1e7"
    },
    {
      "constant": false,
      "inputs": [
        {
          "name": "curr",
          "type": "bytes3"
        },
        {
          "name": "price",
          "type": "uint256"
        }
      ],
      "name": "newSellOrder",
      "outputs": [],
      "payable": true,
      "stateMutability": "payable",
      "type": "function",
      "signature": "0x98c4a0f0"
    },
    {
      "constant": false,
      "inputs": [
        {
          "name": "curr",
          "type": "bytes3"
        },
        {
          "name": "price",
          "type": "uint256"
        }
      ],
      "name": "newBuyOrder",
      "outputs": [],
      "payable": true,
      "stateMutability": "payable",
      "type": "function",
      "signature": "0x5834691d"
    },
    {
      "constant": false,
      "inputs": [],
      "name": "removeSellOrder",
      "outputs": [],
      "payable": false,
      "stateMutability": "nonpayable",
      "type": "function",
      "signature": "0x90711c6c"
    },
    {
      "constant": false,
      "inputs": [],
      "name": "removeBuyOrder",
      "outputs": [],
      "payable": false,
      "stateMutability": "nonpayable",
      "type": "function",
      "signature": "0x6559e1f8"
    }
  ],
  "bytecode": "0x608060405234801561001057600080fd5b50611bfa806100206000396000f300608060405260043610610062576000357c0100000000000000000000000000000000000000000000000000000000900463ffffffff1680635834691d146100745780636559e1f8146100be57806390711c6c146100d557806398c4a0f0146100ec575b34801561006e57600080fd5b50600080fd5b6100bc60048036038101908080357cffffffffffffffffffffffffffffffffffffffffffffffffffffffffff1916906020019092919080359060200190929190505050610136565b005b3480156100ca57600080fd5b506100d3610279565b005b3480156100e157600080fd5b506100ea6102be565b005b61013460048036038101908080357cffffffffffffffffffffffffffffffffffffffffffffffffffffffffff1916906020019092919080359060200190929190505050610303565b005b6000611388823481151561014657fe5b041015151561015457600080fd5b34823330610160610446565b808481526020018373ffffffffffffffffffffffffffffffffffffffff1673ffffffffffffffffffffffffffffffffffffffff1681526020018273ffffffffffffffffffffffffffffffffffffffff1673ffffffffffffffffffffffffffffffffffffffff16815260200193505050506040518091039082f0801580156101eb573d6000803e3d6000fd5b5090509050827cffffffffffffffffffffffffffffffffffffffffffffffffffffffffff19167f62c676695c317ad1e7e7d0876f1946cdfb0e64416011ac7fde25e88f0ff04a0182604051808273ffffffffffffffffffffffffffffffffffffffff1673ffffffffffffffffffffffffffffffffffffffff16815260200191505060405180910390a2505050565b3373ffffffffffffffffffffffffffffffffffffffff167f87e4662a095900af7c2c85144e6ac627f7efd1e3b1ece41db2ed6c4904f4c1e760405160405180910390a2565b3373ffffffffffffffffffffffffffffffffffffffff167fc56eb701a0b6caa330d801c91f60991392c7264def3ad738aca307c1d39f48c260405160405180910390a2565b6000612710823481151561031357fe5b041015151561032157600080fd5b3482333061032d610456565b808481526020018373ffffffffffffffffffffffffffffffffffffffff1673ffffffffffffffffffffffffffffffffffffffff1681526020018273ffffffffffffffffffffffffffffffffffffffff1673ffffffffffffffffffffffffffffffffffffffff16815260200193505050506040518091039082f0801580156103b8573d6000803e3d6000fd5b5090509050827cffffffffffffffffffffffffffffffffffffffffffffffffffffffffff19167fda78f1edc5312d439843fba7b2a994481b99e180d78d8d642718d1eb23227c7e82604051808273ffffffffffffffffffffffffffffffffffffffff1673ffffffffffffffffffffffffffffffffffffffff16815260200191505060405180910390a2505050565b604051610bb88061046783390190565b604051610bb08061101f8339019056006080604052604051606080610bb8833981018060405281019080805190602001909291908051906020019092919080519060200190929190505050806000806101000a81548173ffffffffffffffffffffffffffffffffffffffff021916908373ffffffffffffffffffffffffffffffffffffffff16021790555081600360006101000a81548173ffffffffffffffffffffffffffffffffffffffff021916908373ffffffffffffffffffffffffffffffffffffffff160217905550826002819055506000600560006101000a81548160ff021916908360ff16021790555034600181905550505050610ac1806100f76000396000f30060806040526004361061008e576000357c0100000000000000000000000000000000000000000000000000000000900463ffffffff168063227b326d1461009357806345710074146100c557806371b8fb01146100cf57806373fac6f0146100d957806381015b9c146100e3578063a2b40d1914610112578063c3ca06121461013f578063d8e33d60146101cf575b600080fd5b34801561009f57600080fd5b506100a86101ef565b604051808381526020018281526020019250505060405180910390f35b6100cd610200565b005b6100d76103fc565b005b6100e1610551565b005b3480156100ef57600080fd5b506100f8610785565b604051808215151515815260200191505060405180910390f35b34801561011e57600080fd5b5061013d600480360381019080803590602001909291905050506107ae565b005b34801561014b57600080fd5b5061015461084d565b6040518080602001828103825283818151815260200191508051906020019080838360005b83811015610194578082015181840152602081019050610179565b50505050905090810190601f1680156101c15780820380516001836020036101000a031916815260200191505b509250505060405180910390f35b6101ed6004803603810190808035906020019092919050505061096b565b005b600080600154600254915091509091565b600080600460003373ffffffffffffffffffffffffffffffffffffffff1673ffffffffffffffffffffffffffffffffffffffff1681526020019081526020016000205414151561024f57600080fd5b60003411801561026d575060015460023481151561026957fe5b0411155b8015610293575060006127106002543481151561028657fe5b0481151561029057fe5b06145b151561029e57600080fd5b6002348115156102aa57fe5b04905080600460003373ffffffffffffffffffffffffffffffffffffffff1673ffffffffffffffffffffffffffffffffffffffff16815260200190815260200160002081905550806001600082825403925050819055506001600560008282829054906101000a900460ff160192506101000a81548160ff021916908360ff1602179055503373ffffffffffffffffffffffffffffffffffffffff16600360009054906101000a900473ffffffffffffffffffffffffffffffffffffffff1673ffffffffffffffffffffffffffffffffffffffff167f4ad213fb6e3032a9d41d4bd82a9d895ecb023cd1968dca7e6894e7662fe3446783600254604051808381526020018281526020019250505060405180910390a37f64dc90db4042609ed72aa03bf5c32686fe07c08c0682284e7f1c6f315a3660b36001546040518082815260200191505060405180910390a150565b600360009054906101000a900473ffffffffffffffffffffffffffffffffffffffff1673ffffffffffffffffffffffffffffffffffffffff163373ffffffffffffffffffffffffffffffffffffffff1614151561045857600080fd5b6000600560009054906101000a900460ff1660ff1614151561047957600080fd5b6000809054906101000a900473ffffffffffffffffffffffffffffffffffffffff1673ffffffffffffffffffffffffffffffffffffffff16636559e1f86040518163ffffffff167c0100000000000000000000000000000000000000000000000000000000028152600401600060405180830381600087803b1580156104fe57600080fd5b505af1158015610512573d6000803e3d6000fd5b50505050600360009054906101000a900473ffffffffffffffffffffffffffffffffffffffff1673ffffffffffffffffffffffffffffffffffffffff16ff5b600080600460003373ffffffffffffffffffffffffffffffffffffffff1673ffffffffffffffffffffffffffffffffffffffff168152602001908152602001600020541180156105b357506000600560009054906101000a900460ff1660ff16115b15156105be57600080fd5b600460003373ffffffffffffffffffffffffffffffffffffffff1673ffffffffffffffffffffffffffffffffffffffff1681526020019081526020016000205490506000600460003373ffffffffffffffffffffffffffffffffffffffff1673ffffffffffffffffffffffffffffffffffffffff168152602001908152602001600020819055503373ffffffffffffffffffffffffffffffffffffffff166108fc829081150290604051600060405180830381858888f1935050505015801561068b573d6000803e3d6000fd5b50600360009054906101000a900473ffffffffffffffffffffffffffffffffffffffff1673ffffffffffffffffffffffffffffffffffffffff163373ffffffffffffffffffffffffffffffffffffffff167f7dadf77d3d0c0cdabccf9f483dd0a60a801a51f7ba524baf3b03289e4e78b2b760405160405180910390a3806002026001600082825401925050819055506001600560008282829054906101000a900460ff160392506101000a81548160ff021916908360ff1602179055507f64dc90db4042609ed72aa03bf5c32686fe07c08c0682284e7f1c6f315a3660b36001546040518082815260200191505060405180910390a150565b600080600560009054906101000a900460ff1660ff1611156107aa57600190506107ab565b5b90565b600360009054906101000a900473ffffffffffffffffffffffffffffffffffffffff1673ffffffffffffffffffffffffffffffffffffffff163373ffffffffffffffffffffffffffffffffffffffff1614151561080a57600080fd5b806002819055507f8b3781c36bbc6b82b5fd7bc438ad241cec4db2920a51ecfeaca9dd406d176a5f6002546040518082815260200191505060405180910390a150565b60603373ffffffffffffffffffffffffffffffffffffffff16600360009054906101000a900473ffffffffffffffffffffffffffffffffffffffff1673ffffffffffffffffffffffffffffffffffffffff1614156108e2576040805190810160405280600581526020017f62757965720000000000000000000000000000000000000000000000000000008152509050610968565b6000600460003373ffffffffffffffffffffffffffffffffffffffff1673ffffffffffffffffffffffffffffffffffffffff168152602001908152602001600020541115610967576040805190810160405280600681526020017f73656c6c657200000000000000000000000000000000000000000000000000008152509050610968565b5b90565b600360009054906101000a900473ffffffffffffffffffffffffffffffffffffffff1673ffffffffffffffffffffffffffffffffffffffff163373ffffffffffffffffffffffffffffffffffffffff161415156109c757600080fd5b611388600254026001540381111515156109e057600080fd5b80600160008282540392505081905550600360009054906101000a900473ffffffffffffffffffffffffffffffffffffffff1673ffffffffffffffffffffffffffffffffffffffff166108fc829081150290604051600060405180830381858888f19350505050158015610a58573d6000803e3d6000fd5b507f64dc90db4042609ed72aa03bf5c32686fe07c08c0682284e7f1c6f315a3660b36001546040518082815260200191505060405180910390a1505600a165627a7a7230582027b2d8ed328824c4d0980ea255145b57f05ab0632fa57832e292e6102a30be5100296080604052604051606080610bb0833981018060405281019080805190602001909291908051906020019092919080519060200190929190505050806000806101000a81548173ffffffffffffffffffffffffffffffffffffffff021916908373ffffffffffffffffffffffffffffffffffffffff16021790555081600360006101000a81548173ffffffffffffffffffffffffffffffffffffffff021916908373ffffffffffffffffffffffffffffffffffffffff160217905550826002819055506000600560006101000a81548160ff021916908360ff1602179055506002348115156100ea57fe5b04600181905550505050610aad806101036000396000f30060806040526004361061008e576000357c0100000000000000000000000000000000000000000000000000000000900463ffffffff168063227b326d1461009357806380889348146100c557806381015b9c146100fb5780638894dd2b1461012a578063a2b40d1914610134578063a6f2ae3a14610161578063c3ca06121461016b578063f31fbe88146101fb575b600080fd5b34801561009f57600080fd5b506100a8610205565b604051808381526020018281526020019250505060405180910390f35b6100f9600480360381019080803573ffffffffffffffffffffffffffffffffffffffff169060200190929190505050610216565b005b34801561010757600080fd5b506101106104b4565b604051808215151515815260200191505060405180910390f35b6101326104dd565b005b34801561014057600080fd5b5061015f60048036038101908080359060200190929190505050610590565b005b61016961062f565b005b34801561017757600080fd5b5061018061080e565b6040518080602001828103825283818151815260200191508051906020019080838360005b838110156101c05780820151818401526020810190506101a5565b50505050905090810190601f1680156101ed5780820380516001836020036101000a031916815260200191505b509250505060405180910390f35b61020361092c565b005b600080600154600254915091509091565b6000600360009054906101000a900473ffffffffffffffffffffffffffffffffffffffff1673ffffffffffffffffffffffffffffffffffffffff163373ffffffffffffffffffffffffffffffffffffffff1614151561027457600080fd5b6000600460008473ffffffffffffffffffffffffffffffffffffffff1673ffffffffffffffffffffffffffffffffffffffff168152602001908152602001600020541180156102d557506000600560009054906101000a900460ff1660ff16115b15156102e057600080fd5b600460008373ffffffffffffffffffffffffffffffffffffffff1673ffffffffffffffffffffffffffffffffffffffff1681526020019081526020016000205490506000600460008473ffffffffffffffffffffffffffffffffffffffff1673ffffffffffffffffffffffffffffffffffffffff168152602001908152602001600020819055508173ffffffffffffffffffffffffffffffffffffffff166108fc826002029081150290604051600060405180830381858888f193505050501580156103b0573d6000803e3d6000fd5b506001600560008282829054906101000a900460ff160392506101000a81548160ff021916908360ff160217905550600360009054906101000a900473ffffffffffffffffffffffffffffffffffffffff1673ffffffffffffffffffffffffffffffffffffffff168273ffffffffffffffffffffffffffffffffffffffff167f7dadf77d3d0c0cdabccf9f483dd0a60a801a51f7ba524baf3b03289e4e78b2b760405160405180910390a360028181151561046757fe5b046001600082825401925050819055507f257be50b9a2f1e58c2906332b22697648737ecebf8d52979ad6b3f0d3e5fa4d96001546040518082815260200191505060405180910390a15050565b600080600560009054906101000a900460ff1660ff1611156104d957600190506104da565b5b90565b600360009054906101000a900473ffffffffffffffffffffffffffffffffffffffff1673ffffffffffffffffffffffffffffffffffffffff163373ffffffffffffffffffffffffffffffffffffffff1614151561053957600080fd5b60023481151561054557fe5b046001600082825401925050819055507f257be50b9a2f1e58c2906332b22697648737ecebf8d52979ad6b3f0d3e5fa4d96001546040518082815260200191505060405180910390a1565b600360009054906101000a900473ffffffffffffffffffffffffffffffffffffffff1673ffffffffffffffffffffffffffffffffffffffff163373ffffffffffffffffffffffffffffffffffffffff161415156105ec57600080fd5b806002819055507f8b3781c36bbc6b82b5fd7bc438ad241cec4db2920a51ecfeaca9dd406d176a5f6002546040518082815260200191505060405180910390a150565b6000600460003373ffffffffffffffffffffffffffffffffffffffff1673ffffffffffffffffffffffffffffffffffffffff1681526020019081526020016000205414151561067d57600080fd5b60003411801561068f57506001543411155b80156106b557506000611388600254348115156106a857fe5b048115156106b257fe5b06145b15156106c057600080fd5b34600460003373ffffffffffffffffffffffffffffffffffffffff1673ffffffffffffffffffffffffffffffffffffffff16815260200190815260200160002081905550346001600082825403925050819055506001600560008282829054906101000a900460ff160192506101000a81548160ff021916908360ff1602179055507f257be50b9a2f1e58c2906332b22697648737ecebf8d52979ad6b3f0d3e5fa4d96001546040518082815260200191505060405180910390a13373ffffffffffffffffffffffffffffffffffffffff16600360009054906101000a900473ffffffffffffffffffffffffffffffffffffffff1673ffffffffffffffffffffffffffffffffffffffff167f4ad213fb6e3032a9d41d4bd82a9d895ecb023cd1968dca7e6894e7662fe3446734600254604051808381526020018281526020019250505060405180910390a3565b60606000600460003373ffffffffffffffffffffffffffffffffffffffff1673ffffffffffffffffffffffffffffffffffffffff168152602001908152602001600020541115610895576040805190810160405280600581526020017f62757965720000000000000000000000000000000000000000000000000000008152509050610929565b3373ffffffffffffffffffffffffffffffffffffffff16600360009054906101000a900473ffffffffffffffffffffffffffffffffffffffff1673ffffffffffffffffffffffffffffffffffffffff161415610928576040805190810160405280600681526020017f73656c6c657200000000000000000000000000000000000000000000000000008152509050610929565b5b90565b600360009054906101000a900473ffffffffffffffffffffffffffffffffffffffff1673ffffffffffffffffffffffffffffffffffffffff163373ffffffffffffffffffffffffffffffffffffffff1614151561098857600080fd5b6000600560009054906101000a900460ff1660ff161415156109a957600080fd5b6000809054906101000a900473ffffffffffffffffffffffffffffffffffffffff1673ffffffffffffffffffffffffffffffffffffffff166390711c6c6040518163ffffffff167c0100000000000000000000000000000000000000000000000000000000028152600401600060405180830381600087803b158015610a2e57600080fd5b505af1158015610a42573d6000803e3d6000fd5b50505050600360009054906101000a900473ffffffffffffffffffffffffffffffffffffffff1673ffffffffffffffffffffffffffffffffffffffff16ff00a165627a7a7230582043ef7c08a25e61ac5d8e0fcec7f33005c7d5937e07c5ee3bb6513a4bf021e9290029a165627a7a72305820c130672e49aa90d87415b10622da9edbe096445e08946bcc916a0eee7f1ee9010029",
  "source": "pragma solidity ^0.4.21;\n\nimport \"./Sell_eth.sol\";\nimport \"./Buy_eth.sol\";\n\ncontract Orders {\n\n  event LogNewSellOrder(bytes3 indexed currency, address sellorder);\n  event LogNewBuyOrder(bytes3 indexed currency, address buyorder);\n  event LogRemoveSellOrder(address indexed sellorder);\n  event LogRemoveBuyOrder(address indexed buyorder);   \n\n  function newSellOrder(bytes3 curr, uint price) public payable {\n    require(msg.value/price >= 10000);\n    address order =(new Sell_eth).value(msg.value)(price, msg.sender, this);\n    emit LogNewSellOrder(curr, order);    \n  }\n\n  function newBuyOrder(bytes3 curr, uint price) public payable {\n    require(msg.value/price >= 5000);\n    address order =(new Buy_eth).value(msg.value)(price, msg.sender, this);\n    emit LogNewBuyOrder(curr, order);\n  }\n\n  function removeSellOrder() public {  \n    emit LogRemoveSellOrder(msg.sender);\n  }\n\n  function removeBuyOrder() public {\n    emit LogRemoveBuyOrder(msg.sender);\n  }\n\n  function() public {revert();}\n}\n\n",
  "sourcePath": "/home/kees/ethereum/eth_market_dapp/contracts/Orders.sol",
  "compiler": {
    "name": "solc",
    "version": "0.4.24+commit.e67f0147.Emscripten.clang"
  },
  "schemaVersion": "3.0.2",
  "updatedAt": "2019-03-08T04:55:16.708Z"
}