{
  "contractName": "Orders",
  "abi": [
    {
      "payable": false,
      "stateMutability": "nonpayable",
      "type": "fallback"
    },
    {
      "anonymous": false,
      "inputs": [
        {
          "indexed": true,
          "name": "currency",
          "type": "string"
        },
        {
          "indexed": false,
          "name": "sellorder",
          "type": "address"
        }
      ],
      "name": "LogNewSellOrder",
      "type": "event"
    },
    {
      "anonymous": false,
      "inputs": [
        {
          "indexed": true,
          "name": "currency",
          "type": "string"
        },
        {
          "indexed": false,
          "name": "buyorder",
          "type": "address"
        }
      ],
      "name": "LogNewBuyOrder",
      "type": "event"
    },
    {
      "anonymous": false,
      "inputs": [
        {
          "indexed": true,
          "name": "currency",
          "type": "string"
        },
        {
          "indexed": false,
          "name": "sellorder",
          "type": "address"
        }
      ],
      "name": "LogRemoveSellOrder",
      "type": "event"
    },
    {
      "anonymous": false,
      "inputs": [
        {
          "indexed": true,
          "name": "currency",
          "type": "string"
        },
        {
          "indexed": false,
          "name": "buyorder",
          "type": "address"
        }
      ],
      "name": "LogRemoveBuyOrder",
      "type": "event"
    },
    {
      "constant": false,
      "inputs": [
        {
          "name": "curr",
          "type": "string"
        },
        {
          "name": "price",
          "type": "uint256"
        }
      ],
      "name": "newSellOrder",
      "outputs": [],
      "payable": true,
      "stateMutability": "payable",
      "type": "function"
    },
    {
      "constant": false,
      "inputs": [
        {
          "name": "curr",
          "type": "string"
        },
        {
          "name": "price",
          "type": "uint256"
        }
      ],
      "name": "newBuyOrder",
      "outputs": [],
      "payable": true,
      "stateMutability": "payable",
      "type": "function"
    },
    {
      "constant": false,
      "inputs": [
        {
          "name": "curr",
          "type": "string"
        }
      ],
      "name": "removeSellOrder",
      "outputs": [],
      "payable": false,
      "stateMutability": "nonpayable",
      "type": "function"
    },
    {
      "constant": false,
      "inputs": [
        {
          "name": "curr",
          "type": "string"
        }
      ],
      "name": "removeBuyOrder",
      "outputs": [],
      "payable": false,
      "stateMutability": "nonpayable",
      "type": "function"
    }
  ],
  "bytecode": "0x6060604052341561000f57600080fd5b61213a8061001e6000396000f300606060405260043610610062576000357c0100000000000000000000000000000000000000000000000000000000900463ffffffff1680630bf7062714610072578063476b6632146100cd5780639620a24e1461012a578063b4c2e9a014610185575b341561006d57600080fd5b600080fd5b6100cb600480803590602001908201803590602001908080601f016020809104026020016040519081016040528093929190818152602001838380828437820191505050505050919080359060200190919050506101e2565b005b34156100d857600080fd5b610128600480803590602001908201803590602001908080601f016020809104026020016040519081016040528093929190818152602001838380828437820191505050505050919050506103cd565b005b610183600480803590602001908201803590602001908080601f01602080910402602001604051908101604052809392919081815260200183838082843782019150505050505091908035906020019091905050610496565b005b341561019057600080fd5b6101e0600480803590602001908201803590602001908080601f01602080910402602001604051908101604052809392919081815260200183838082843782019150505050505091905050610681565b005b600061138882348115156101f257fe5b041015151561020057600080fd5b348383333061020d61074a565b80806020018581526020018473ffffffffffffffffffffffffffffffffffffffff1673ffffffffffffffffffffffffffffffffffffffff1681526020018373ffffffffffffffffffffffffffffffffffffffff1673ffffffffffffffffffffffffffffffffffffffff168152602001828103825286818151815260200191508051906020019080838360005b838110156102b4578082015181840152602081019050610299565b50505050905090810190601f1680156102e15780820380516001836020036101000a031916815260200191505b50955050505050506040518091039082f08015156102fe57600080fd5b90509050826040518082805190602001908083835b6020831015156103385780518252602082019150602081019050602083039250610313565b6001836020036101000a03801982511681845116808217855250505050505090500191505060405180910390207f795b5ed5c3b8a9a6547d8ee5169a7247edb7d53613e1188bf1f109d00221859282604051808273ffffffffffffffffffffffffffffffffffffffff1673ffffffffffffffffffffffffffffffffffffffff16815260200191505060405180910390a2505050565b806040518082805190602001908083835b60208310151561040357805182526020820191506020810190506020830392506103de565b6001836020036101000a03801982511681845116808217855250505050505090500191505060405180910390207f6a37d451bf2865dc795ecaf3727b729722f41db7c2add4c9a12aad23a3a654af33604051808273ffffffffffffffffffffffffffffffffffffffff1673ffffffffffffffffffffffffffffffffffffffff16815260200191505060405180910390a250565b600061271082348115156104a657fe5b04101515156104b457600080fd5b34838333306104c161075a565b80806020018581526020018473ffffffffffffffffffffffffffffffffffffffff1673ffffffffffffffffffffffffffffffffffffffff1681526020018373ffffffffffffffffffffffffffffffffffffffff1673ffffffffffffffffffffffffffffffffffffffff168152602001828103825286818151815260200191508051906020019080838360005b8381101561056857808201518184015260208101905061054d565b50505050905090810190601f1680156105955780820380516001836020036101000a031916815260200191505b50955050505050506040518091039082f08015156105b257600080fd5b90509050826040518082805190602001908083835b6020831015156105ec57805182526020820191506020810190506020830392506105c7565b6001836020036101000a03801982511681845116808217855250505050505090500191505060405180910390207ff94f85bd95170076d1a67972f892d934e9f27e230fc5aa7cdb25a10c4c084c0782604051808273ffffffffffffffffffffffffffffffffffffffff1673ffffffffffffffffffffffffffffffffffffffff16815260200191505060405180910390a2505050565b806040518082805190602001908083835b6020831015156106b75780518252602082019150602081019050602083039250610692565b6001836020036101000a03801982511681845116808217855250505050505090500191505060405180910390207f1a5880ef895cb8471cfd6bf7274692d3ab66fa7d6dc3cf58b07bdbaf6b10eac833604051808273ffffffffffffffffffffffffffffffffffffffff1673ffffffffffffffffffffffffffffffffffffffff16815260200191505060405180910390a250565b604051610cf78061076b83390190565b604051610cad806114628339019056006060604052604051610cf7380380610cf783398101604052808051820191906020018051906020019091908051906020019091908051906020019091905050806000806101000a81548173ffffffffffffffffffffffffffffffffffffffff021916908373ffffffffffffffffffffffffffffffffffffffff1602179055508360019080519060200190610094929190610109565b5081600460006101000a81548173ffffffffffffffffffffffffffffffffffffffff021916908373ffffffffffffffffffffffffffffffffffffffff160217905550826003819055506000600660006101000a81548160ff021916908360ff16021790555034600281905550505050506101ae565b828054600181600116156101000203166002900490600052602060002090601f016020900481019282601f1061014a57805160ff1916838001178555610178565b82800160010185558215610178579182015b8281111561017757825182559160200191906001019061015c565b5b5090506101859190610189565b5090565b6101ab91905b808211156101a757600081600090555060010161018f565b5090565b90565b610b3a806101bd6000396000f30060606040526004361061008e576000357c0100000000000000000000000000000000000000000000000000000000900463ffffffff168063227b326d1461009357806345710074146100c357806371b8fb01146100cd57806373fac6f0146100d757806381015b9c146100e1578063a2b40d191461010e578063c3ca061214610131578063d8e33d60146101bf575b600080fd5b341561009e57600080fd5b6100a66101d7565b604051808381526020018281526020019250505060405180910390f35b6100cb6101e8565b005b6100d56103e4565b005b6100df6105be565b005b34156100ec57600080fd5b6100f46107eb565b604051808215151515815260200191505060405180910390f35b341561011957600080fd5b61012f6004808035906020019091905050610814565b005b341561013c57600080fd5b6101446108b3565b6040518080602001828103825283818151815260200191508051906020019080838360005b83811015610184578082015181840152602081019050610169565b50505050905090810190601f1680156101b15780820380516001836020036101000a031916815260200191505b509250505060405180910390f35b6101d560048080359060200190919050506109d7565b005b600080600254600354915091509091565b600080600560003373ffffffffffffffffffffffffffffffffffffffff1673ffffffffffffffffffffffffffffffffffffffff1681526020019081526020016000205414151561023757600080fd5b600034118015610255575060025460023481151561025157fe5b0411155b801561027b575060006127106003543481151561026e57fe5b0481151561027857fe5b06145b151561028657600080fd5b60023481151561029257fe5b04905080600560003373ffffffffffffffffffffffffffffffffffffffff1673ffffffffffffffffffffffffffffffffffffffff16815260200190815260200160002081905550806002600082825403925050819055506001600660008282829054906101000a900460ff160192506101000a81548160ff021916908360ff1602179055503373ffffffffffffffffffffffffffffffffffffffff16600460009054906101000a900473ffffffffffffffffffffffffffffffffffffffff1673ffffffffffffffffffffffffffffffffffffffff167f4ad213fb6e3032a9d41d4bd82a9d895ecb023cd1968dca7e6894e7662fe3446783600354604051808381526020018281526020019250505060405180910390a37f64dc90db4042609ed72aa03bf5c32686fe07c08c0682284e7f1c6f315a3660b36002546040518082815260200191505060405180910390a150565b600460009054906101000a900473ffffffffffffffffffffffffffffffffffffffff1673ffffffffffffffffffffffffffffffffffffffff163373ffffffffffffffffffffffffffffffffffffffff1614151561044057600080fd5b6000600660009054906101000a900460ff1660ff1614151561046157600080fd5b6000809054906101000a900473ffffffffffffffffffffffffffffffffffffffff1673ffffffffffffffffffffffffffffffffffffffff1663476b663260016040518263ffffffff167c010000000000000000000000000000000000000000000000000000000002815260040180806020018281038252838181546001816001161561010002031660029004815260200191508054600181600116156101000203166002900480156105545780601f1061052957610100808354040283529160200191610554565b820191906000526020600020905b81548152906001019060200180831161053757829003601f168201915b505092505050600060405180830381600087803b151561057357600080fd5b5af1151561058057600080fd5b505050600460009054906101000a900473ffffffffffffffffffffffffffffffffffffffff1673ffffffffffffffffffffffffffffffffffffffff16ff5b600080600560003373ffffffffffffffffffffffffffffffffffffffff1673ffffffffffffffffffffffffffffffffffffffff1681526020019081526020016000205411801561062057506000600660009054906101000a900460ff1660ff16115b151561062b57600080fd5b600560003373ffffffffffffffffffffffffffffffffffffffff1673ffffffffffffffffffffffffffffffffffffffff1681526020019081526020016000205490506000600560003373ffffffffffffffffffffffffffffffffffffffff1673ffffffffffffffffffffffffffffffffffffffff168152602001908152602001600020819055503373ffffffffffffffffffffffffffffffffffffffff166108fc829081150290604051600060405180830381858888f1935050505015156106f257600080fd5b600460009054906101000a900473ffffffffffffffffffffffffffffffffffffffff1673ffffffffffffffffffffffffffffffffffffffff163373ffffffffffffffffffffffffffffffffffffffff167f7dadf77d3d0c0cdabccf9f483dd0a60a801a51f7ba524baf3b03289e4e78b2b760405160405180910390a3806002026002600082825401925050819055506001600660008282829054906101000a900460ff160392506101000a81548160ff021916908360ff1602179055507f64dc90db4042609ed72aa03bf5c32686fe07c08c0682284e7f1c6f315a3660b36002546040518082815260200191505060405180910390a150565b600080600660009054906101000a900460ff1660ff1611156108105760019050610811565b5b90565b600460009054906101000a900473ffffffffffffffffffffffffffffffffffffffff1673ffffffffffffffffffffffffffffffffffffffff163373ffffffffffffffffffffffffffffffffffffffff1614151561087057600080fd5b806003819055507f8b3781c36bbc6b82b5fd7bc438ad241cec4db2920a51ecfeaca9dd406d176a5f6003546040518082815260200191505060405180910390a150565b6108bb610afa565b3373ffffffffffffffffffffffffffffffffffffffff16600460009054906101000a900473ffffffffffffffffffffffffffffffffffffffff1673ffffffffffffffffffffffffffffffffffffffff16141561094e576040805190810160405280600581526020017f627579657200000000000000000000000000000000000000000000000000000081525090506109d4565b6000600560003373ffffffffffffffffffffffffffffffffffffffff1673ffffffffffffffffffffffffffffffffffffffff1681526020019081526020016000205411156109d3576040805190810160405280600681526020017f73656c6c6572000000000000000000000000000000000000000000000000000081525090506109d4565b5b90565b600460009054906101000a900473ffffffffffffffffffffffffffffffffffffffff1673ffffffffffffffffffffffffffffffffffffffff163373ffffffffffffffffffffffffffffffffffffffff16141515610a3357600080fd5b61138860035402600254038111151515610a4c57600080fd5b80600260008282540392505081905550600460009054906101000a900473ffffffffffffffffffffffffffffffffffffffff1673ffffffffffffffffffffffffffffffffffffffff166108fc829081150290604051600060405180830381858888f193505050501515610abe57600080fd5b7f64dc90db4042609ed72aa03bf5c32686fe07c08c0682284e7f1c6f315a3660b36002546040518082815260200191505060405180910390a150565b6020604051908101604052806000815250905600a165627a7a723058205e26f8c23e7884d531d1a9d17d2d5eb25b2450278394414f0f9ffc16518e74b900296060604052604051610cad380380610cad83398101604052808051820191906020018051906020019091908051906020019091908051906020019091905050806000806101000a81548173ffffffffffffffffffffffffffffffffffffffff021916908373ffffffffffffffffffffffffffffffffffffffff1602179055508360019080519060200190610094929190610115565b5081600460006101000a81548173ffffffffffffffffffffffffffffffffffffffff021916908373ffffffffffffffffffffffffffffffffffffffff160217905550826003819055506000600660006101000a81548160ff021916908360ff16021790555060023481151561010557fe5b04600281905550505050506101ba565b828054600181600116156101000203166002900490600052602060002090601f016020900481019282601f1061015657805160ff1916838001178555610184565b82800160010185558215610184579182015b82811115610183578251825591602001919060010190610168565b5b5090506101919190610195565b5090565b6101b791905b808211156101b357600081600090555060010161019b565b5090565b90565b610ae4806101c96000396000f30060606040526004361061008e576000357c0100000000000000000000000000000000000000000000000000000000900463ffffffff168063227b326d1461009357806380889348146100c357806381015b9c146100f15780638894dd2b1461011e578063a2b40d1914610128578063a6f2ae3a1461014b578063c3ca061214610155578063f31fbe88146101e3575b600080fd5b341561009e57600080fd5b6100a66101ed565b604051808381526020018281526020019250505060405180910390f35b6100ef600480803573ffffffffffffffffffffffffffffffffffffffff169060200190919050506101fe565b005b34156100fc57600080fd5b610104610440565b604051808215151515815260200191505060405180910390f35b610126610469565b005b341561013357600080fd5b610149600480803590602001909190505061051c565b005b6101536105bb565b005b341561016057600080fd5b6101686107a6565b6040518080602001828103825283818151815260200191508051906020019080838360005b838110156101a857808201518184015260208101905061018d565b50505050905090810190601f1680156101d55780820380516001836020036101000a031916815260200191505b509250505060405180910390f35b6101eb6108ca565b005b600080600254600354915091509091565b6000600460009054906101000a900473ffffffffffffffffffffffffffffffffffffffff1673ffffffffffffffffffffffffffffffffffffffff163373ffffffffffffffffffffffffffffffffffffffff1614151561025c57600080fd5b6000600560008473ffffffffffffffffffffffffffffffffffffffff1673ffffffffffffffffffffffffffffffffffffffff168152602001908152602001600020541180156102bd57506000600660009054906101000a900460ff1660ff16115b15156102c857600080fd5b600560008373ffffffffffffffffffffffffffffffffffffffff1673ffffffffffffffffffffffffffffffffffffffff1681526020019081526020016000205490506000600560008473ffffffffffffffffffffffffffffffffffffffff1673ffffffffffffffffffffffffffffffffffffffff168152602001908152602001600020819055508173ffffffffffffffffffffffffffffffffffffffff166108fc826002029081150290604051600060405180830381858888f19350505050151561039257600080fd5b6001600660008282829054906101000a900460ff160392506101000a81548160ff021916908360ff160217905550600460009054906101000a900473ffffffffffffffffffffffffffffffffffffffff1673ffffffffffffffffffffffffffffffffffffffff168273ffffffffffffffffffffffffffffffffffffffff167f7dadf77d3d0c0cdabccf9f483dd0a60a801a51f7ba524baf3b03289e4e78b2b760405160405180910390a35050565b600080600660009054906101000a900460ff1660ff1611156104655760019050610466565b5b90565b600460009054906101000a900473ffffffffffffffffffffffffffffffffffffffff1673ffffffffffffffffffffffffffffffffffffffff163373ffffffffffffffffffffffffffffffffffffffff161415156104c557600080fd5b6002348115156104d157fe5b046002600082825401925050819055507f257be50b9a2f1e58c2906332b22697648737ecebf8d52979ad6b3f0d3e5fa4d96002546040518082815260200191505060405180910390a1565b600460009054906101000a900473ffffffffffffffffffffffffffffffffffffffff1673ffffffffffffffffffffffffffffffffffffffff163373ffffffffffffffffffffffffffffffffffffffff1614151561057857600080fd5b806003819055507f8b3781c36bbc6b82b5fd7bc438ad241cec4db2920a51ecfeaca9dd406d176a5f6003546040518082815260200191505060405180910390a150565b6000600560003373ffffffffffffffffffffffffffffffffffffffff1673ffffffffffffffffffffffffffffffffffffffff1681526020019081526020016000205414151561060957600080fd5b60003411801561061b57506002543411155b8015610641575060006113886003543481151561063457fe5b0481151561063e57fe5b06145b151561064c57600080fd5b34600560003373ffffffffffffffffffffffffffffffffffffffff1673ffffffffffffffffffffffffffffffffffffffff1681526020019081526020016000208190555060023481151561069c57fe5b046002600082825403925050819055506001600660008282829054906101000a900460ff160192506101000a81548160ff021916908360ff1602179055507f257be50b9a2f1e58c2906332b22697648737ecebf8d52979ad6b3f0d3e5fa4d96002546040518082815260200191505060405180910390a13373ffffffffffffffffffffffffffffffffffffffff16600460009054906101000a900473ffffffffffffffffffffffffffffffffffffffff1673ffffffffffffffffffffffffffffffffffffffff167f4ad213fb6e3032a9d41d4bd82a9d895ecb023cd1968dca7e6894e7662fe3446734600354604051808381526020018281526020019250505060405180910390a3565b6107ae610aa4565b6000600560003373ffffffffffffffffffffffffffffffffffffffff1673ffffffffffffffffffffffffffffffffffffffff168152602001908152602001600020541115610833576040805190810160405280600581526020017f627579657200000000000000000000000000000000000000000000000000000081525090506108c7565b3373ffffffffffffffffffffffffffffffffffffffff16600460009054906101000a900473ffffffffffffffffffffffffffffffffffffffff1673ffffffffffffffffffffffffffffffffffffffff1614156108c6576040805190810160405280600681526020017f73656c6c6572000000000000000000000000000000000000000000000000000081525090506108c7565b5b90565b600460009054906101000a900473ffffffffffffffffffffffffffffffffffffffff1673ffffffffffffffffffffffffffffffffffffffff163373ffffffffffffffffffffffffffffffffffffffff1614151561092657600080fd5b6000600660009054906101000a900460ff1660ff1614151561094757600080fd5b6000809054906101000a900473ffffffffffffffffffffffffffffffffffffffff1673ffffffffffffffffffffffffffffffffffffffff1663b4c2e9a060016040518263ffffffff167c01000000000000000000000000000000000000000000000000000000000281526004018080602001828103825283818154600181600116156101000203166002900481526020019150805460018160011615610100020316600290048015610a3a5780601f10610a0f57610100808354040283529160200191610a3a565b820191906000526020600020905b815481529060010190602001808311610a1d57829003601f168201915b505092505050600060405180830381600087803b1515610a5957600080fd5b5af11515610a6657600080fd5b505050600460009054906101000a900473ffffffffffffffffffffffffffffffffffffffff1673ffffffffffffffffffffffffffffffffffffffff16ff5b6020604051908101604052806000815250905600a165627a7a7230582097e0d80d23c7dd16f28c97549e87e224fc83aa17963c6718ea4cba6533a9c7930029a165627a7a72305820bf36fc1342c5b70343c93c9dd87ece50d326d59fe3b02cb25369c5b3e6a9688a0029",
  "source": "pragma solidity ^0.4.21;\n\nimport \"./Sell_eth.sol\";\nimport \"./Buy_eth.sol\";\n\ncontract Orders {\n\n  event LogNewSellOrder(string indexed currency, address sellorder);\n  event LogNewBuyOrder(string indexed currency, address buyorder);\n  event LogRemoveSellOrder(string indexed currency, address sellorder);\n  event LogRemoveBuyOrder(string indexed currency, address buyorder);   \n\n  function newSellOrder(string curr, uint price) public payable {\n    require(msg.value/price >= 10000);\n    address order =(new Sell_eth).value(msg.value)(curr, price, msg.sender, this);\n    emit LogNewSellOrder(curr, order);    \n  }\n\n  function newBuyOrder(string curr, uint price) public payable {\n    require(msg.value/price >= 5000);\n    address order =(new Buy_eth).value(msg.value)(curr, price, msg.sender, this);\n    emit LogNewBuyOrder(curr, order);\n  }\n\n  function removeSellOrder(string curr) public {  \n    emit LogRemoveSellOrder(curr, msg.sender);\n  }\n\n  function removeBuyOrder(string curr) public {\n    emit LogRemoveBuyOrder(curr, msg.sender);\n  }\n\n  function() public {revert();}\n}\n\n",
  "sourcePath": "/home/kees/ethereum/eth_market_dapp/contracts/Orders.sol",
  "compiler": {
    "name": "solc",
    "version": "0.4.21+commit.dfe3193c.Emscripten.clang"
  },
  "schemaVersion": "2.0.0",
  "updatedAt": "2018-03-24T04:58:41.644Z"
}