{
  "contractName": "Orders",
  "abi": [
    {
      "constant": false,
      "inputs": [
        {
          "name": "price",
          "type": "uint256"
        }
      ],
      "name": "newSellOrder",
      "outputs": [],
      "payable": true,
      "stateMutability": "payable",
      "type": "function"
    },
    {
      "constant": false,
      "inputs": [
        {
          "name": "price",
          "type": "uint256"
        }
      ],
      "name": "newBuyOrder",
      "outputs": [],
      "payable": true,
      "stateMutability": "payable",
      "type": "function"
    },
    {
      "constant": false,
      "inputs": [],
      "name": "removeBuyOrder",
      "outputs": [],
      "payable": false,
      "stateMutability": "nonpayable",
      "type": "function"
    },
    {
      "constant": false,
      "inputs": [],
      "name": "removeSellOrder",
      "outputs": [],
      "payable": false,
      "stateMutability": "nonpayable",
      "type": "function"
    },
    {
      "payable": false,
      "stateMutability": "nonpayable",
      "type": "fallback"
    },
    {
      "anonymous": false,
      "inputs": [
        {
          "indexed": false,
          "name": "sellorder",
          "type": "address"
        }
      ],
      "name": "LogNewSellOrder",
      "type": "event"
    },
    {
      "anonymous": false,
      "inputs": [
        {
          "indexed": false,
          "name": "buyorder",
          "type": "address"
        }
      ],
      "name": "LogNewBuyOrder",
      "type": "event"
    },
    {
      "anonymous": false,
      "inputs": [
        {
          "indexed": false,
          "name": "sellorder",
          "type": "address"
        }
      ],
      "name": "LogRemoveSellOrder",
      "type": "event"
    },
    {
      "anonymous": false,
      "inputs": [
        {
          "indexed": false,
          "name": "buyorder",
          "type": "address"
        }
      ],
      "name": "LogRemoveBuyOrder",
      "type": "event"
    }
  ],
  "bytecode": "0x6060604052341561000f57600080fd5b611b0b8061001e6000396000f300606060405260043610610062576000357c0100000000000000000000000000000000000000000000000000000000900463ffffffff168063373dbbad146100725780636098e6771461008a5780636559e1f8146100a257806390711c6c146100b7575b341561006d57600080fd5b600080fd5b61008860048080359060200190919050506100cc565b005b6100a060048080359060200190919050506101e8565b005b34156100ad57600080fd5b6100b56102f8565b005b34156100c257600080fd5b6100ca61035d565b005b600061138882026002348115156100df57fe5b041115156100ec57600080fd5b348233306100f86103c2565b808481526020018373ffffffffffffffffffffffffffffffffffffffff1673ffffffffffffffffffffffffffffffffffffffff1681526020018273ffffffffffffffffffffffffffffffffffffffff1673ffffffffffffffffffffffffffffffffffffffff16815260200193505050506040518091039082f080151561017d57600080fd5b905090507f457bb5f059f746ad18206a6344fa9bf03d518f013e3eaab66eccb4e50a48adc981604051808273ffffffffffffffffffffffffffffffffffffffff1673ffffffffffffffffffffffffffffffffffffffff16815260200191505060405180910390a15050565b60006113888202341115156101fc57600080fd5b348233306102086103d2565b808481526020018373ffffffffffffffffffffffffffffffffffffffff1673ffffffffffffffffffffffffffffffffffffffff1681526020018273ffffffffffffffffffffffffffffffffffffffff1673ffffffffffffffffffffffffffffffffffffffff16815260200193505050506040518091039082f080151561028d57600080fd5b905090507f47e7264c33567d252230c56aa9eba683945b3bd5acf811d2c274b6a867bff5cb81604051808273ffffffffffffffffffffffffffffffffffffffff1673ffffffffffffffffffffffffffffffffffffffff16815260200191505060405180910390a15050565b7f87e4662a095900af7c2c85144e6ac627f7efd1e3b1ece41db2ed6c4904f4c1e733604051808273ffffffffffffffffffffffffffffffffffffffff1673ffffffffffffffffffffffffffffffffffffffff16815260200191505060405180910390a1565b7fc56eb701a0b6caa330d801c91f60991392c7264def3ad738aca307c1d39f48c233604051808273ffffffffffffffffffffffffffffffffffffffff1673ffffffffffffffffffffffffffffffffffffffff16815260200191505060405180910390a1565b604051610b54806103e383390190565b604051610ba980610f378339019056006060604052604051606080610b5483398101604052808051906020019091908051906020019091908051906020019091905050806000806101000a81548173ffffffffffffffffffffffffffffffffffffffff021916908373ffffffffffffffffffffffffffffffffffffffff16021790555081600360006101000a81548173ffffffffffffffffffffffffffffffffffffffff021916908373ffffffffffffffffffffffffffffffffffffffff160217905550826002819055506000600560006101000a81548160ff021916908360ff1602179055506002348115156100e257fe5b04600181905550505050610a59806100fb6000396000f30060606040526004361061008e576000357c0100000000000000000000000000000000000000000000000000000000900463ffffffff168063227b326d1461009357806380889348146100c357806381015b9c146100f15780638894dd2b1461011e578063a2b40d1914610128578063a6f2ae3a1461014b578063c3ca061214610155578063f31fbe88146101e3575b600080fd5b341561009e57600080fd5b6100a66101ed565b604051808381526020018281526020019250505060405180910390f35b6100ef600480803573ffffffffffffffffffffffffffffffffffffffff169060200190919050506101fe565b005b34156100fc57600080fd5b610104610440565b604051808215151515815260200191505060405180910390f35b610126610469565b005b341561013357600080fd5b610149600480803590602001909190505061051c565b005b6101536105bb565b005b341561016057600080fd5b6101686107a5565b6040518080602001828103825283818151815260200191508051906020019080838360005b838110156101a857808201518184015260208101905061018d565b50505050905090810190601f1680156101d55780820380516001836020036101000a031916815260200191505b509250505060405180910390f35b6101eb6108c9565b005b600080600154600254915091509091565b6000600360009054906101000a900473ffffffffffffffffffffffffffffffffffffffff1673ffffffffffffffffffffffffffffffffffffffff163373ffffffffffffffffffffffffffffffffffffffff1614151561025c57600080fd5b6000600460008473ffffffffffffffffffffffffffffffffffffffff1673ffffffffffffffffffffffffffffffffffffffff168152602001908152602001600020541180156102bd57506000600560009054906101000a900460ff1660ff16115b15156102c857600080fd5b600460008373ffffffffffffffffffffffffffffffffffffffff1673ffffffffffffffffffffffffffffffffffffffff1681526020019081526020016000205490506000600460008473ffffffffffffffffffffffffffffffffffffffff1673ffffffffffffffffffffffffffffffffffffffff168152602001908152602001600020819055508173ffffffffffffffffffffffffffffffffffffffff166108fc826002029081150290604051600060405180830381858888f19350505050151561039257600080fd5b6001600560008282829054906101000a900460ff160392506101000a81548160ff021916908360ff160217905550600360009054906101000a900473ffffffffffffffffffffffffffffffffffffffff1673ffffffffffffffffffffffffffffffffffffffff168273ffffffffffffffffffffffffffffffffffffffff167f7dadf77d3d0c0cdabccf9f483dd0a60a801a51f7ba524baf3b03289e4e78b2b760405160405180910390a35050565b600080600560009054906101000a900460ff1660ff1611156104655760019050610466565b5b90565b600360009054906101000a900473ffffffffffffffffffffffffffffffffffffffff1673ffffffffffffffffffffffffffffffffffffffff163373ffffffffffffffffffffffffffffffffffffffff161415156104c557600080fd5b6002348115156104d157fe5b046001600082825401925050819055507f257be50b9a2f1e58c2906332b22697648737ecebf8d52979ad6b3f0d3e5fa4d96001546040518082815260200191505060405180910390a1565b600360009054906101000a900473ffffffffffffffffffffffffffffffffffffffff1673ffffffffffffffffffffffffffffffffffffffff163373ffffffffffffffffffffffffffffffffffffffff1614151561057857600080fd5b806002819055507f8b3781c36bbc6b82b5fd7bc438ad241cec4db2920a51ecfeaca9dd406d176a5f6002546040518082815260200191505060405180910390a150565b6000600460003373ffffffffffffffffffffffffffffffffffffffff1673ffffffffffffffffffffffffffffffffffffffff1681526020019081526020016000205414151561060957600080fd5b60003411801561061a575060015434105b8015610640575060006113886002543481151561063357fe5b0481151561063d57fe5b06145b151561064b57600080fd5b34600460003373ffffffffffffffffffffffffffffffffffffffff1673ffffffffffffffffffffffffffffffffffffffff1681526020019081526020016000208190555060023481151561069b57fe5b046001600082825403925050819055506001600560008282829054906101000a900460ff160192506101000a81548160ff021916908360ff1602179055507f257be50b9a2f1e58c2906332b22697648737ecebf8d52979ad6b3f0d3e5fa4d96001546040518082815260200191505060405180910390a13373ffffffffffffffffffffffffffffffffffffffff16600360009054906101000a900473ffffffffffffffffffffffffffffffffffffffff1673ffffffffffffffffffffffffffffffffffffffff167f4ad213fb6e3032a9d41d4bd82a9d895ecb023cd1968dca7e6894e7662fe3446734600254604051808381526020018281526020019250505060405180910390a3565b6107ad610a19565b6000600460003373ffffffffffffffffffffffffffffffffffffffff1673ffffffffffffffffffffffffffffffffffffffff168152602001908152602001600020541115610832576040805190810160405280600581526020017f627579657200000000000000000000000000000000000000000000000000000081525090506108c6565b3373ffffffffffffffffffffffffffffffffffffffff16600360009054906101000a900473ffffffffffffffffffffffffffffffffffffffff1673ffffffffffffffffffffffffffffffffffffffff1614156108c5576040805190810160405280600681526020017f73656c6c6572000000000000000000000000000000000000000000000000000081525090506108c6565b5b90565b600360009054906101000a900473ffffffffffffffffffffffffffffffffffffffff1673ffffffffffffffffffffffffffffffffffffffff163373ffffffffffffffffffffffffffffffffffffffff1614151561092557600080fd5b6000600560009054906101000a900460ff1660ff1614151561094657600080fd5b6000809054906101000a900473ffffffffffffffffffffffffffffffffffffffff1673ffffffffffffffffffffffffffffffffffffffff166390711c6c6040518163ffffffff167c0100000000000000000000000000000000000000000000000000000000028152600401600060405180830381600087803b15156109ca57600080fd5b6102c65a03f115156109db57600080fd5b505050600360009054906101000a900473ffffffffffffffffffffffffffffffffffffffff1673ffffffffffffffffffffffffffffffffffffffff16ff5b6020604051908101604052806000815250905600a165627a7a72305820a2d35ca8c153857bbac6e2fa7668841434304965e68cca3842e92e761df68a6300296060604052604051606080610ba983398101604052808051906020019091908051906020019091908051906020019091905050806000806101000a81548173ffffffffffffffffffffffffffffffffffffffff021916908373ffffffffffffffffffffffffffffffffffffffff16021790555081600360006101000a81548173ffffffffffffffffffffffffffffffffffffffff021916908373ffffffffffffffffffffffffffffffffffffffff160217905550826002819055506000600560006101000a81548160ff021916908360ff16021790555034600181905550505050610aba806100ef6000396000f30060606040526004361061008e576000357c0100000000000000000000000000000000000000000000000000000000900463ffffffff168063227b326d1461009357806345710074146100c357806371b8fb01146100cd57806373fac6f0146100d757806381015b9c146100e1578063a2b40d191461010e578063c3ca061214610131578063d8e33d60146101bf575b600080fd5b341561009e57600080fd5b6100a66101d7565b604051808381526020018281526020019250505060405180910390f35b6100cb6101e8565b005b6100d56103ef565b005b6100df61053f565b005b34156100ec57600080fd5b6100f461076c565b604051808215151515815260200191505060405180910390f35b341561011957600080fd5b61012f6004808035906020019091905050610795565b005b341561013c57600080fd5b610144610834565b6040518080602001828103825283818151815260200191508051906020019080838360005b83811015610184578082015181840152602081019050610169565b50505050905090810190601f1680156101b15780820380516001836020036101000a031916815260200191505b509250505060405180910390f35b6101d56004808035906020019091905050610958565b005b600080600154600254915091509091565b600080600460003373ffffffffffffffffffffffffffffffffffffffff1673ffffffffffffffffffffffffffffffffffffffff1681526020019081526020016000205414151561023757600080fd5b600034118015610254575060015460023481151561025157fe5b04105b80156102865750600061138860025460023481151561026f57fe5b0481151561027957fe5b0481151561028357fe5b06145b151561029157600080fd5b60023481151561029d57fe5b0490503373ffffffffffffffffffffffffffffffffffffffff16600360009054906101000a900473ffffffffffffffffffffffffffffffffffffffff1673ffffffffffffffffffffffffffffffffffffffff167f4ad213fb6e3032a9d41d4bd82a9d895ecb023cd1968dca7e6894e7662fe3446783600254604051808381526020018281526020019250505060405180910390a380600460003373ffffffffffffffffffffffffffffffffffffffff1673ffffffffffffffffffffffffffffffffffffffff16815260200190815260200160002081905550806001600082825403925050819055506001600560008282829054906101000a900460ff160192506101000a81548160ff021916908360ff1602179055507f64dc90db4042609ed72aa03bf5c32686fe07c08c0682284e7f1c6f315a3660b36001546040518082815260200191505060405180910390a150565b600360009054906101000a900473ffffffffffffffffffffffffffffffffffffffff1673ffffffffffffffffffffffffffffffffffffffff163373ffffffffffffffffffffffffffffffffffffffff1614151561044b57600080fd5b6000600560009054906101000a900460ff1660ff1614151561046c57600080fd5b6000809054906101000a900473ffffffffffffffffffffffffffffffffffffffff1673ffffffffffffffffffffffffffffffffffffffff16636559e1f86040518163ffffffff167c0100000000000000000000000000000000000000000000000000000000028152600401600060405180830381600087803b15156104f057600080fd5b6102c65a03f1151561050157600080fd5b505050600360009054906101000a900473ffffffffffffffffffffffffffffffffffffffff1673ffffffffffffffffffffffffffffffffffffffff16ff5b600080600460003373ffffffffffffffffffffffffffffffffffffffff1673ffffffffffffffffffffffffffffffffffffffff168152602001908152602001600020541180156105a157506000600560009054906101000a900460ff1660ff16115b15156105ac57600080fd5b600460003373ffffffffffffffffffffffffffffffffffffffff1673ffffffffffffffffffffffffffffffffffffffff1681526020019081526020016000205490506000600460003373ffffffffffffffffffffffffffffffffffffffff1673ffffffffffffffffffffffffffffffffffffffff168152602001908152602001600020819055503373ffffffffffffffffffffffffffffffffffffffff166108fc829081150290604051600060405180830381858888f19350505050151561067357600080fd5b600360009054906101000a900473ffffffffffffffffffffffffffffffffffffffff1673ffffffffffffffffffffffffffffffffffffffff163373ffffffffffffffffffffffffffffffffffffffff167f7dadf77d3d0c0cdabccf9f483dd0a60a801a51f7ba524baf3b03289e4e78b2b760405160405180910390a3806002026001600082825401925050819055506001600560008282829054906101000a900460ff160392506101000a81548160ff021916908360ff1602179055507f64dc90db4042609ed72aa03bf5c32686fe07c08c0682284e7f1c6f315a3660b36001546040518082815260200191505060405180910390a150565b600080600560009054906101000a900460ff1660ff1611156107915760019050610792565b5b90565b600360009054906101000a900473ffffffffffffffffffffffffffffffffffffffff1673ffffffffffffffffffffffffffffffffffffffff163373ffffffffffffffffffffffffffffffffffffffff161415156107f157600080fd5b806002819055507f8b3781c36bbc6b82b5fd7bc438ad241cec4db2920a51ecfeaca9dd406d176a5f6002546040518082815260200191505060405180910390a150565b61083c610a7a565b3373ffffffffffffffffffffffffffffffffffffffff16600360009054906101000a900473ffffffffffffffffffffffffffffffffffffffff1673ffffffffffffffffffffffffffffffffffffffff1614156108cf576040805190810160405280600581526020017f62757965720000000000000000000000000000000000000000000000000000008152509050610955565b6000600460003373ffffffffffffffffffffffffffffffffffffffff1673ffffffffffffffffffffffffffffffffffffffff168152602001908152602001600020541115610954576040805190810160405280600681526020017f73656c6c657200000000000000000000000000000000000000000000000000008152509050610955565b5b90565b600360009054906101000a900473ffffffffffffffffffffffffffffffffffffffff1673ffffffffffffffffffffffffffffffffffffffff163373ffffffffffffffffffffffffffffffffffffffff161415156109b457600080fd5b6113886002540260015403811015156109cc57600080fd5b80600160008282540392505081905550600360009054906101000a900473ffffffffffffffffffffffffffffffffffffffff1673ffffffffffffffffffffffffffffffffffffffff166108fc829081150290604051600060405180830381858888f193505050501515610a3e57600080fd5b7f64dc90db4042609ed72aa03bf5c32686fe07c08c0682284e7f1c6f315a3660b36001546040518082815260200191505060405180910390a150565b6020604051908101604052806000815250905600a165627a7a723058203f456f569145692e54c8aeab742d295f13266416c1846346e25c4215db8b06850029a165627a7a72305820500f0f06c69b2d03d88081695b0f00a1e1cfab938db9c4852c4d6230ab8b137f0029",
  "source": "pragma solidity ^0.4.4;\n\nimport \"./Sell_eth.sol\";\nimport \"./Buy_eth.sol\";\n\ncontract Orders {\n\n  event LogNewSellOrder(address sellorder);\n  event LogNewBuyOrder(address buyorder);\n  event LogRemoveSellOrder(address sellorder);\n  event LogRemoveBuyOrder(address buyorder);   \n\n  function newSellOrder(uint price) public payable {\n    require(msg.value/2 > price*5000);\n    address order =(new Sell_eth).value(msg.value)(price, msg.sender, this);\n    LogNewSellOrder(order);    \n  }\n\n  function newBuyOrder(uint price) public payable {\n    require(msg.value > price*5000);\n    address order =(new Buy_eth).value(msg.value)(price, msg.sender, this);\n    LogNewBuyOrder(order);\n  }\n\n  function removeSellOrder() public {  \n    LogRemoveSellOrder(msg.sender);\n  }\n\n  function removeBuyOrder() public {\n    LogRemoveBuyOrder(msg.sender);\n  }\n\n  function() public {revert();}\n}\n",
  "sourcePath": "/home/kees/ethereum/eth_market_dapp/contracts/Orders.sol",
  "compiler": {
    "name": "solc",
    "version": "0.4.18+commit.9cf6e910.Emscripten.clang"
  },
  "schemaVersion": "1.0.1",
  "updatedAt": "2017-12-21T23:30:51.199Z"
}