{
  "contractName": "Sell_eth",
  "abi": [
    {
      "inputs": [
        {
          "name": "_currency",
          "type": "string"
        },
        {
          "name": "_price",
          "type": "uint256"
        },
        {
          "name": "_seller",
          "type": "address"
        },
        {
          "name": "_orders",
          "type": "address"
        }
      ],
      "payable": true,
      "stateMutability": "payable",
      "type": "constructor"
    },
    {
      "anonymous": false,
      "inputs": [
        {
          "indexed": false,
          "name": "wei_for_sale",
          "type": "uint256"
        }
      ],
      "name": "LogNewWeiForSale",
      "type": "event"
    },
    {
      "anonymous": false,
      "inputs": [
        {
          "indexed": false,
          "name": "nprice",
          "type": "uint256"
        }
      ],
      "name": "LogNewPrice",
      "type": "event"
    },
    {
      "anonymous": false,
      "inputs": [
        {
          "indexed": true,
          "name": "_seller",
          "type": "address"
        },
        {
          "indexed": true,
          "name": "_buyer",
          "type": "address"
        },
        {
          "indexed": false,
          "name": "value",
          "type": "uint256"
        },
        {
          "indexed": false,
          "name": "_price",
          "type": "uint256"
        }
      ],
      "name": "LogSalePending",
      "type": "event"
    },
    {
      "anonymous": false,
      "inputs": [
        {
          "indexed": true,
          "name": "_buyer",
          "type": "address"
        },
        {
          "indexed": true,
          "name": "_seller",
          "type": "address"
        }
      ],
      "name": "LogCashReceived",
      "type": "event"
    },
    {
      "constant": false,
      "inputs": [],
      "name": "buy",
      "outputs": [],
      "payable": true,
      "stateMutability": "payable",
      "type": "function"
    },
    {
      "constant": false,
      "inputs": [
        {
          "name": "_buyer",
          "type": "address"
        }
      ],
      "name": "confirmReceived",
      "outputs": [],
      "payable": true,
      "stateMutability": "payable",
      "type": "function"
    },
    {
      "constant": false,
      "inputs": [],
      "name": "addEther",
      "outputs": [],
      "payable": true,
      "stateMutability": "payable",
      "type": "function"
    },
    {
      "constant": false,
      "inputs": [
        {
          "name": "new_price",
          "type": "uint256"
        }
      ],
      "name": "changePrice",
      "outputs": [],
      "payable": false,
      "stateMutability": "nonpayable",
      "type": "function"
    },
    {
      "constant": false,
      "inputs": [],
      "name": "retr_funds",
      "outputs": [],
      "payable": true,
      "stateMutability": "payable",
      "type": "function"
    },
    {
      "constant": true,
      "inputs": [],
      "name": "get_vars",
      "outputs": [
        {
          "name": "",
          "type": "uint256"
        },
        {
          "name": "",
          "type": "uint256"
        }
      ],
      "payable": false,
      "stateMutability": "view",
      "type": "function"
    },
    {
      "constant": true,
      "inputs": [],
      "name": "is_party",
      "outputs": [
        {
          "name": "",
          "type": "string"
        }
      ],
      "payable": false,
      "stateMutability": "view",
      "type": "function"
    },
    {
      "constant": true,
      "inputs": [],
      "name": "has_pending",
      "outputs": [
        {
          "name": "",
          "type": "bool"
        }
      ],
      "payable": false,
      "stateMutability": "view",
      "type": "function"
    }
  ],
  "bytecode": "0x6060604052604051610cad380380610cad83398101604052808051820191906020018051906020019091908051906020019091908051906020019091905050806000806101000a81548173ffffffffffffffffffffffffffffffffffffffff021916908373ffffffffffffffffffffffffffffffffffffffff1602179055508360019080519060200190610094929190610115565b5081600460006101000a81548173ffffffffffffffffffffffffffffffffffffffff021916908373ffffffffffffffffffffffffffffffffffffffff160217905550826003819055506000600660006101000a81548160ff021916908360ff16021790555060023481151561010557fe5b04600281905550505050506101ba565b828054600181600116156101000203166002900490600052602060002090601f016020900481019282601f1061015657805160ff1916838001178555610184565b82800160010185558215610184579182015b82811115610183578251825591602001919060010190610168565b5b5090506101919190610195565b5090565b6101b791905b808211156101b357600081600090555060010161019b565b5090565b90565b610ae4806101c96000396000f30060606040526004361061008e576000357c0100000000000000000000000000000000000000000000000000000000900463ffffffff168063227b326d1461009357806380889348146100c357806381015b9c146100f15780638894dd2b1461011e578063a2b40d1914610128578063a6f2ae3a1461014b578063c3ca061214610155578063f31fbe88146101e3575b600080fd5b341561009e57600080fd5b6100a66101ed565b604051808381526020018281526020019250505060405180910390f35b6100ef600480803573ffffffffffffffffffffffffffffffffffffffff169060200190919050506101fe565b005b34156100fc57600080fd5b610104610440565b604051808215151515815260200191505060405180910390f35b610126610469565b005b341561013357600080fd5b610149600480803590602001909190505061051c565b005b6101536105bb565b005b341561016057600080fd5b6101686107a6565b6040518080602001828103825283818151815260200191508051906020019080838360005b838110156101a857808201518184015260208101905061018d565b50505050905090810190601f1680156101d55780820380516001836020036101000a031916815260200191505b509250505060405180910390f35b6101eb6108ca565b005b600080600254600354915091509091565b6000600460009054906101000a900473ffffffffffffffffffffffffffffffffffffffff1673ffffffffffffffffffffffffffffffffffffffff163373ffffffffffffffffffffffffffffffffffffffff1614151561025c57600080fd5b6000600560008473ffffffffffffffffffffffffffffffffffffffff1673ffffffffffffffffffffffffffffffffffffffff168152602001908152602001600020541180156102bd57506000600660009054906101000a900460ff1660ff16115b15156102c857600080fd5b600560008373ffffffffffffffffffffffffffffffffffffffff1673ffffffffffffffffffffffffffffffffffffffff1681526020019081526020016000205490506000600560008473ffffffffffffffffffffffffffffffffffffffff1673ffffffffffffffffffffffffffffffffffffffff168152602001908152602001600020819055508173ffffffffffffffffffffffffffffffffffffffff166108fc826002029081150290604051600060405180830381858888f19350505050151561039257600080fd5b6001600660008282829054906101000a900460ff160392506101000a81548160ff021916908360ff160217905550600460009054906101000a900473ffffffffffffffffffffffffffffffffffffffff1673ffffffffffffffffffffffffffffffffffffffff168273ffffffffffffffffffffffffffffffffffffffff167f7dadf77d3d0c0cdabccf9f483dd0a60a801a51f7ba524baf3b03289e4e78b2b760405160405180910390a35050565b600080600660009054906101000a900460ff1660ff1611156104655760019050610466565b5b90565b600460009054906101000a900473ffffffffffffffffffffffffffffffffffffffff1673ffffffffffffffffffffffffffffffffffffffff163373ffffffffffffffffffffffffffffffffffffffff161415156104c557600080fd5b6002348115156104d157fe5b046002600082825401925050819055507f257be50b9a2f1e58c2906332b22697648737ecebf8d52979ad6b3f0d3e5fa4d96002546040518082815260200191505060405180910390a1565b600460009054906101000a900473ffffffffffffffffffffffffffffffffffffffff1673ffffffffffffffffffffffffffffffffffffffff163373ffffffffffffffffffffffffffffffffffffffff1614151561057857600080fd5b806003819055507f8b3781c36bbc6b82b5fd7bc438ad241cec4db2920a51ecfeaca9dd406d176a5f6003546040518082815260200191505060405180910390a150565b6000600560003373ffffffffffffffffffffffffffffffffffffffff1673ffffffffffffffffffffffffffffffffffffffff1681526020019081526020016000205414151561060957600080fd5b60003411801561061b57506002543411155b8015610641575060006113886003543481151561063457fe5b0481151561063e57fe5b06145b151561064c57600080fd5b34600560003373ffffffffffffffffffffffffffffffffffffffff1673ffffffffffffffffffffffffffffffffffffffff1681526020019081526020016000208190555060023481151561069c57fe5b046002600082825403925050819055506001600660008282829054906101000a900460ff160192506101000a81548160ff021916908360ff1602179055507f257be50b9a2f1e58c2906332b22697648737ecebf8d52979ad6b3f0d3e5fa4d96002546040518082815260200191505060405180910390a13373ffffffffffffffffffffffffffffffffffffffff16600460009054906101000a900473ffffffffffffffffffffffffffffffffffffffff1673ffffffffffffffffffffffffffffffffffffffff167f4ad213fb6e3032a9d41d4bd82a9d895ecb023cd1968dca7e6894e7662fe3446734600354604051808381526020018281526020019250505060405180910390a3565b6107ae610aa4565b6000600560003373ffffffffffffffffffffffffffffffffffffffff1673ffffffffffffffffffffffffffffffffffffffff168152602001908152602001600020541115610833576040805190810160405280600581526020017f627579657200000000000000000000000000000000000000000000000000000081525090506108c7565b3373ffffffffffffffffffffffffffffffffffffffff16600460009054906101000a900473ffffffffffffffffffffffffffffffffffffffff1673ffffffffffffffffffffffffffffffffffffffff1614156108c6576040805190810160405280600681526020017f73656c6c6572000000000000000000000000000000000000000000000000000081525090506108c7565b5b90565b600460009054906101000a900473ffffffffffffffffffffffffffffffffffffffff1673ffffffffffffffffffffffffffffffffffffffff163373ffffffffffffffffffffffffffffffffffffffff1614151561092657600080fd5b6000600660009054906101000a900460ff1660ff1614151561094757600080fd5b6000809054906101000a900473ffffffffffffffffffffffffffffffffffffffff1673ffffffffffffffffffffffffffffffffffffffff1663b4c2e9a060016040518263ffffffff167c01000000000000000000000000000000000000000000000000000000000281526004018080602001828103825283818154600181600116156101000203166002900481526020019150805460018160011615610100020316600290048015610a3a5780601f10610a0f57610100808354040283529160200191610a3a565b820191906000526020600020905b815481529060010190602001808311610a1d57829003601f168201915b505092505050600060405180830381600087803b1515610a5957600080fd5b5af11515610a6657600080fd5b505050600460009054906101000a900473ffffffffffffffffffffffffffffffffffffffff1673ffffffffffffffffffffffffffffffffffffffff16ff5b6020604051908101604052806000815250905600a165627a7a7230582097e0d80d23c7dd16f28c97549e87e224fc83aa17963c6718ea4cba6533a9c7930029",
  "source": "pragma solidity ^0.4.21;\n\nimport \"./Orders.sol\";\n\ncontract Sell_eth {\n    Orders orders;\n    string currency;\n    uint weiForSale;\n    uint price; //wei per smallest currency unit (eg. cent)\n    address seller;\n    mapping(address => uint) sales;\n    uint8 pending;\n    modifier onlySeller() {require(msg.sender == seller);  _;}\n\n    event LogNewWeiForSale(uint wei_for_sale);\n    event LogNewPrice(uint nprice);\n    event LogSalePending(address indexed _seller, address indexed _buyer, uint value, uint _price);\n    event LogCashReceived(address indexed _buyer, address indexed _seller);\n\n    function Sell_eth(string _currency, uint _price, address _seller, address _orders) public payable {\n        orders = Orders(_orders);\n\tcurrency = _currency;\n        seller = _seller;\n        price = _price;\n        pending = 0;\n        weiForSale = msg.value / 2;\n    }\n    \n    function buy() payable public {\n        require(sales[msg.sender] == 0);\n        require(msg.value > 0 && msg.value <= weiForSale && (msg.value/price)%5000 == 0);\n        sales[msg.sender] = msg.value;\n        weiForSale -= msg.value/2;\n        pending += 1;\n        emit LogNewWeiForSale(weiForSale);\n        emit LogSalePending(seller, msg.sender, msg.value, price);\n    }\n\n    function confirmReceived(address _buyer) public onlySeller payable {\n        require(sales[_buyer] > 0 && pending > 0);\n        uint amt = sales[_buyer];\n        sales[_buyer] = 0;\n        _buyer.transfer(2*amt);\n        pending -= 1;\n        emit LogCashReceived(_buyer, seller);\n    }\n\n    function addEther() public onlySeller payable {\n        weiForSale += msg.value/2;\n        emit LogNewWeiForSale(weiForSale);\n    }\n\n    function changePrice(uint new_price) public onlySeller {\n        price = new_price;\n        emit LogNewPrice(price);\n    }\n    \n    function retr_funds() public onlySeller payable {\n        require(pending == 0);\n        orders.removeSellOrder(currency);\n        selfdestruct(seller);\n    }\n    \n    function get_vars() view public returns(uint, uint) {\n        return (weiForSale, price);\n    }\n\n    function is_party() view public returns(string) {\n        if (sales[msg.sender] > 0) return \"buyer\";\n        else if (seller == msg.sender) return \"seller\";\n    }\n\n    function has_pending() view public returns(bool) {\n\tif (pending > 0) return true;\n    }\n}\n\n",
  "sourcePath": "/home/kees/ethereum/eth_market_dapp/contracts/Sell_eth.sol",
  "compiler": {
    "name": "solc",
    "version": "0.4.21+commit.dfe3193c.Emscripten.clang"
  },
  "schemaVersion": "2.0.0",
  "updatedAt": "2018-03-24T04:58:41.645Z"
}