{
  "contractName": "Sell_eth",
  "abi": [
    {
      "inputs": [
        {
          "name": "_price",
          "type": "uint256"
        },
        {
          "name": "_seller",
          "type": "address"
        },
        {
          "name": "_orders",
          "type": "address"
        }
      ],
      "payable": true,
      "stateMutability": "payable",
      "type": "constructor"
    },
    {
      "anonymous": false,
      "inputs": [
        {
          "indexed": false,
          "name": "wei_for_sale",
          "type": "uint256"
        }
      ],
      "name": "LogNewWeiForSale",
      "type": "event"
    },
    {
      "anonymous": false,
      "inputs": [
        {
          "indexed": false,
          "name": "nprice",
          "type": "uint256"
        }
      ],
      "name": "LogNewPrice",
      "type": "event"
    },
    {
      "anonymous": false,
      "inputs": [
        {
          "indexed": true,
          "name": "_seller",
          "type": "address"
        },
        {
          "indexed": true,
          "name": "_buyer",
          "type": "address"
        },
        {
          "indexed": false,
          "name": "value",
          "type": "uint256"
        },
        {
          "indexed": false,
          "name": "_price",
          "type": "uint256"
        }
      ],
      "name": "LogSalePending",
      "type": "event"
    },
    {
      "anonymous": false,
      "inputs": [
        {
          "indexed": true,
          "name": "_buyer",
          "type": "address"
        },
        {
          "indexed": true,
          "name": "_seller",
          "type": "address"
        }
      ],
      "name": "LogCashReceived",
      "type": "event"
    },
    {
      "constant": false,
      "inputs": [],
      "name": "buy",
      "outputs": [],
      "payable": true,
      "stateMutability": "payable",
      "type": "function"
    },
    {
      "constant": false,
      "inputs": [
        {
          "name": "_buyer",
          "type": "address"
        }
      ],
      "name": "confirmReceived",
      "outputs": [],
      "payable": true,
      "stateMutability": "payable",
      "type": "function"
    },
    {
      "constant": false,
      "inputs": [],
      "name": "addEther",
      "outputs": [],
      "payable": true,
      "stateMutability": "payable",
      "type": "function"
    },
    {
      "constant": false,
      "inputs": [
        {
          "name": "new_price",
          "type": "uint256"
        }
      ],
      "name": "changePrice",
      "outputs": [],
      "payable": false,
      "stateMutability": "nonpayable",
      "type": "function"
    },
    {
      "constant": false,
      "inputs": [],
      "name": "retr_funds",
      "outputs": [],
      "payable": true,
      "stateMutability": "payable",
      "type": "function"
    },
    {
      "constant": true,
      "inputs": [],
      "name": "get_vars",
      "outputs": [
        {
          "name": "",
          "type": "uint256"
        },
        {
          "name": "",
          "type": "uint256"
        }
      ],
      "payable": false,
      "stateMutability": "view",
      "type": "function"
    },
    {
      "constant": true,
      "inputs": [],
      "name": "is_party",
      "outputs": [
        {
          "name": "",
          "type": "string"
        }
      ],
      "payable": false,
      "stateMutability": "view",
      "type": "function"
    },
    {
      "constant": true,
      "inputs": [],
      "name": "has_pending",
      "outputs": [
        {
          "name": "",
          "type": "bool"
        }
      ],
      "payable": false,
      "stateMutability": "view",
      "type": "function"
    }
  ],
  "bytecode": "0x6080604052604051606080610bb0833981018060405281019080805190602001909291908051906020019092919080519060200190929190505050806000806101000a81548173ffffffffffffffffffffffffffffffffffffffff021916908373ffffffffffffffffffffffffffffffffffffffff16021790555081600360006101000a81548173ffffffffffffffffffffffffffffffffffffffff021916908373ffffffffffffffffffffffffffffffffffffffff160217905550826002819055506000600560006101000a81548160ff021916908360ff1602179055506002348115156100ea57fe5b04600181905550505050610aad806101036000396000f30060806040526004361061008e576000357c0100000000000000000000000000000000000000000000000000000000900463ffffffff168063227b326d1461009357806380889348146100c557806381015b9c146100fb5780638894dd2b1461012a578063a2b40d1914610134578063a6f2ae3a14610161578063c3ca06121461016b578063f31fbe88146101fb575b600080fd5b34801561009f57600080fd5b506100a8610205565b604051808381526020018281526020019250505060405180910390f35b6100f9600480360381019080803573ffffffffffffffffffffffffffffffffffffffff169060200190929190505050610216565b005b34801561010757600080fd5b506101106104b4565b604051808215151515815260200191505060405180910390f35b6101326104dd565b005b34801561014057600080fd5b5061015f60048036038101908080359060200190929190505050610590565b005b61016961062f565b005b34801561017757600080fd5b5061018061080e565b6040518080602001828103825283818151815260200191508051906020019080838360005b838110156101c05780820151818401526020810190506101a5565b50505050905090810190601f1680156101ed5780820380516001836020036101000a031916815260200191505b509250505060405180910390f35b61020361092c565b005b600080600154600254915091509091565b6000600360009054906101000a900473ffffffffffffffffffffffffffffffffffffffff1673ffffffffffffffffffffffffffffffffffffffff163373ffffffffffffffffffffffffffffffffffffffff1614151561027457600080fd5b6000600460008473ffffffffffffffffffffffffffffffffffffffff1673ffffffffffffffffffffffffffffffffffffffff168152602001908152602001600020541180156102d557506000600560009054906101000a900460ff1660ff16115b15156102e057600080fd5b600460008373ffffffffffffffffffffffffffffffffffffffff1673ffffffffffffffffffffffffffffffffffffffff1681526020019081526020016000205490506000600460008473ffffffffffffffffffffffffffffffffffffffff1673ffffffffffffffffffffffffffffffffffffffff168152602001908152602001600020819055508173ffffffffffffffffffffffffffffffffffffffff166108fc826002029081150290604051600060405180830381858888f193505050501580156103b0573d6000803e3d6000fd5b506001600560008282829054906101000a900460ff160392506101000a81548160ff021916908360ff160217905550600360009054906101000a900473ffffffffffffffffffffffffffffffffffffffff1673ffffffffffffffffffffffffffffffffffffffff168273ffffffffffffffffffffffffffffffffffffffff167f7dadf77d3d0c0cdabccf9f483dd0a60a801a51f7ba524baf3b03289e4e78b2b760405160405180910390a360028181151561046757fe5b046001600082825401925050819055507f257be50b9a2f1e58c2906332b22697648737ecebf8d52979ad6b3f0d3e5fa4d96001546040518082815260200191505060405180910390a15050565b600080600560009054906101000a900460ff1660ff1611156104d957600190506104da565b5b90565b600360009054906101000a900473ffffffffffffffffffffffffffffffffffffffff1673ffffffffffffffffffffffffffffffffffffffff163373ffffffffffffffffffffffffffffffffffffffff1614151561053957600080fd5b60023481151561054557fe5b046001600082825401925050819055507f257be50b9a2f1e58c2906332b22697648737ecebf8d52979ad6b3f0d3e5fa4d96001546040518082815260200191505060405180910390a1565b600360009054906101000a900473ffffffffffffffffffffffffffffffffffffffff1673ffffffffffffffffffffffffffffffffffffffff163373ffffffffffffffffffffffffffffffffffffffff161415156105ec57600080fd5b806002819055507f8b3781c36bbc6b82b5fd7bc438ad241cec4db2920a51ecfeaca9dd406d176a5f6002546040518082815260200191505060405180910390a150565b6000600460003373ffffffffffffffffffffffffffffffffffffffff1673ffffffffffffffffffffffffffffffffffffffff1681526020019081526020016000205414151561067d57600080fd5b60003411801561068f57506001543411155b80156106b557506000611388600254348115156106a857fe5b048115156106b257fe5b06145b15156106c057600080fd5b34600460003373ffffffffffffffffffffffffffffffffffffffff1673ffffffffffffffffffffffffffffffffffffffff16815260200190815260200160002081905550346001600082825403925050819055506001600560008282829054906101000a900460ff160192506101000a81548160ff021916908360ff1602179055507f257be50b9a2f1e58c2906332b22697648737ecebf8d52979ad6b3f0d3e5fa4d96001546040518082815260200191505060405180910390a13373ffffffffffffffffffffffffffffffffffffffff16600360009054906101000a900473ffffffffffffffffffffffffffffffffffffffff1673ffffffffffffffffffffffffffffffffffffffff167f4ad213fb6e3032a9d41d4bd82a9d895ecb023cd1968dca7e6894e7662fe3446734600254604051808381526020018281526020019250505060405180910390a3565b60606000600460003373ffffffffffffffffffffffffffffffffffffffff1673ffffffffffffffffffffffffffffffffffffffff168152602001908152602001600020541115610895576040805190810160405280600581526020017f62757965720000000000000000000000000000000000000000000000000000008152509050610929565b3373ffffffffffffffffffffffffffffffffffffffff16600360009054906101000a900473ffffffffffffffffffffffffffffffffffffffff1673ffffffffffffffffffffffffffffffffffffffff161415610928576040805190810160405280600681526020017f73656c6c657200000000000000000000000000000000000000000000000000008152509050610929565b5b90565b600360009054906101000a900473ffffffffffffffffffffffffffffffffffffffff1673ffffffffffffffffffffffffffffffffffffffff163373ffffffffffffffffffffffffffffffffffffffff1614151561098857600080fd5b6000600560009054906101000a900460ff1660ff161415156109a957600080fd5b6000809054906101000a900473ffffffffffffffffffffffffffffffffffffffff1673ffffffffffffffffffffffffffffffffffffffff166390711c6c6040518163ffffffff167c0100000000000000000000000000000000000000000000000000000000028152600401600060405180830381600087803b158015610a2e57600080fd5b505af1158015610a42573d6000803e3d6000fd5b50505050600360009054906101000a900473ffffffffffffffffffffffffffffffffffffffff1673ffffffffffffffffffffffffffffffffffffffff16ff00a165627a7a7230582043ef7c08a25e61ac5d8e0fcec7f33005c7d5937e07c5ee3bb6513a4bf021e9290029",
  "source": "pragma solidity ^0.4.21;\n\nimport \"./Orders.sol\";\n\ncontract Sell_eth {\n    Orders orders;\n    uint weiForSale;\n    uint price; //wei per smallest currency unit (eg. cent)\n    address seller;\n    mapping(address => uint) sales;\n    uint8 pending;\n    modifier onlySeller() {require(msg.sender == seller);  _;}\n\n    event LogNewWeiForSale(uint wei_for_sale);\n    event LogNewPrice(uint nprice);\n    event LogSalePending(address indexed _seller, address indexed _buyer, uint value, uint _price);\n    event LogCashReceived(address indexed _buyer, address indexed _seller);\n\n    constructor(uint _price, address _seller, address _orders) public payable {\n        orders = Orders(_orders);\n        seller = _seller;\n        price = _price;\n        pending = 0;\n        weiForSale = msg.value / 2;\n    }\n    \n    function buy() payable public {\n        require(sales[msg.sender] == 0);\n        require(msg.value > 0 && msg.value <= weiForSale && (msg.value/price)%5000 == 0);\n        sales[msg.sender] = msg.value;\n        weiForSale -= msg.value;\n        pending += 1;\n        emit LogNewWeiForSale(weiForSale);\n        emit LogSalePending(seller, msg.sender, msg.value, price);\n    }\n\n    function confirmReceived(address _buyer) public onlySeller payable {\n        require(sales[_buyer] > 0 && pending > 0);\n        uint amt = sales[_buyer];\n        sales[_buyer] = 0;\n        _buyer.transfer(2*amt);\n        pending -= 1;\n        emit LogCashReceived(_buyer, seller);\n\tweiForSale += amt/2;\n\temit LogNewWeiForSale(weiForSale); \n    }\n\n    function addEther() public onlySeller payable {\n        weiForSale += msg.value/2;\n        emit LogNewWeiForSale(weiForSale);\n    }\n\n    function changePrice(uint new_price) public onlySeller {\n        price = new_price;\n        emit LogNewPrice(price);\n    }\n    \n    function retr_funds() public onlySeller payable {\n        require(pending == 0);\n        orders.removeSellOrder();\n        selfdestruct(seller);\n    }\n\n    function get_vars() view public returns(uint,uint) {\n        return (weiForSale, price);\n    }    \n    function is_party() view public returns(string) {\n        if (sales[msg.sender] > 0) return \"buyer\";\n        else if (seller == msg.sender) return \"seller\";\n    }\n\n    function has_pending() view public returns(bool) {\n\tif (pending > 0) return true;\n    }\n}\n\n",
  "sourcePath": "/home/kees/ethereum/eth_market_dapp/contracts/Sell_eth.sol",
  "compiler": {
    "name": "solc",
    "version": "0.4.24+commit.e67f0147.Emscripten.clang"
  },
  "schemaVersion": "3.0.2",
  "updatedAt": "2019-03-08T04:55:16.712Z"
}